:100000000A128A1112280800FE00030E831203133D
:10001000EC000408ED000A08EE007F08EF000A1269
:100020008A11A02C0A128A1115288313CC3084005F
:10003000E7300A128A156F2283010A128A11C72D2E
:10004000831203134C08D2004D08D3004E08D4008D
:100050000310530D540DD5005508D600D608031DC6
:1000600038280030CC000030CD000030CE00080031
:100070004F08D2005008D3005108D4000310530D8C
:10008000540DD5005508DB00DB08031D4E28003059
:10009000CC000030CD000030CE0008005B087B3E75
:1000A000D2005208D6074C08D2004D08D3004E08A3
:1000B000D40010300310D40CD30CD20CFF3E031D1F
:1000C0005A285208D5005508DB004F08D2005008C6
:1000D000D3005108D40010300310D40CD30CD20C30
:1000E000FF3E031D6C285208D5005508DB06803002
:1000F000D2005208DB05CD17D017FF30CF05FF30F7
:10010000D0050030D1050030D7000030D8000030D5
:10011000D9000730D2005208DA004C1C9D284F0845
:10012000D707500803110318500A031DD8075108B8
:1001300003110318510A031DD90701300310CE0C17
:10014000CD0CCC0CFF3E031D9E2801300310CF0DBB
:10015000D00DD10DFF3E031DA6280130DA02031D8C
:100160008D280930D2005208DA004C1CC5284F08EF
:10017000D707500803110318500A031DD807510868
:1001800003110318510A031DD90701300310CE0CC7
:10019000CD0CCC0CFF3E031DC62801300310D90C3A
:1001A000D80CD70CFF3E031DCE280130DA02031D08
:1001B000B5285708F0005808F1005908F200560811
:1001C000D2005208F3005B08D3005308F4000A126F
:1001D0008A155825700883120313CC007108CD00CE
:1001E0007208CE00080083160313A30083120C1EAE
:1001F000F6288316031323088312031399000800BB
:10020000FF0001308A007F08820705290A128A113F
:10021000032883160313BF00013083160313B107AD
:10022000FF30310784000A128A150A200A128A1147
:10023000B3003308BE00BE080319572B3E08253A09
:10024000031947293F0A84008313800803193529BD
:100250003E08B3003308A3003F0A840000080A12D6
:100260008A1100210A128A110C29831603133E08F1
:10027000B3003F0884008313000884003308800023
:100280000130B3003F088400330880070C29BC010B
:10029000BD01BB0150293B150130B3003308B10744
:1002A000310884000A128A150A200A128A11303A8B
:1002B00003194B295B29310884000A128A150A2088
:1002C0000A128A110A128A158C220A128A11031C38
:1002D000AB2983160313BC01BD010A308316031337
:1002E000A3000030A4003D08A601A6073C08A50114
:1002F000A5070A128A158C230A128A118316031382
:100300002408BD01BD072308BC01BC0731088400D7
:100310000A128A150A200A128A11D03EB300FF3051
:1003200003180030B4003308BC070318BD0A3408B2
:10033000BD070130B3003308B107310884000A1249
:100340008A150A200A128A110A128A158C220A12A8
:100350008A1103186D29013083160313B107FF308A
:10036000310784000A128A150A200A128A11BE0077
:10037000003A0319572B643A0319C2290D3A03199D
:10038000C2290C2983160313320884008313000842
:10039000B30002308007330884000008B700840AE5
:1003A0000008B800B81FDD290330B3003308BB04D0
:1003B000B709B809B70A0319B80ABE01BE0A3E0850
:1003C000053A0319042A3E08B3003307013E8400AE
:1003D0000A128A150A200A128A11B4000A128A1512
:1003E0000A200A128A11B50035083802031DFA29BD
:1003F00034083702031C042A0130B3003308BE0757
:100400003E08053A031DE3293D083C040319122A5E
:100410003B0803390319122AFF30BC070318BD0A31
:10042000FF30BD073E08B300B401B31BB40334086A
:10043000803AB5003D08803A3502031D212A3C0868
:1004400033020318312A831603133E08B300B401A4
:10045000B31BB4033308BC023408031CBD03BD0244
:10046000352A83160313BC01BD013B1D922A3B08AC
:10047000033903195F2A3F0A840083138008031994
:100480004E2A2D30B3003308A3003F0A8400000831
:100490000A128A1100210A128A115F2A2D3083164E
:1004A0000313B3003F08840083130008840033085B
:1004B00080000130B3003F088400330880078316B2
:1004C00003133D083C040319EE2A3F0A84008313FA
:1004D00080080319782A3030B3003308A3003F0A9C
:1004E000840000080A128A1100210A128A11892A3E
:1004F000303083160313B3003F08840083130008D1
:100500008400330880000130B3003F0884003308C2
:100510008007FF3083160313BC070318BD0AFF30A2
:10052000BD07612A3D083C040319C62A3F0A84001E
:10053000831380080319A92A2030B3003308A300CD
:100540003F0A840000080A128A1100210A128A1147
:10055000BA2A203083160313B3003F0884008313A4
:1005600000088400330880000130B3003F08840095
:1005700033088007FF3083160313BC070318BD0A36
:10058000FF30BD073D083C04031D962A3B08033994
:100590000319EE2A3F0A8400831380080319DD2A19
:1005A0002D30B3003308A3003F0A840000080A126C
:1005B0008A1100210A128A11EE2A2D3083160313A4
:1005C000B3003F08840083130008840033088000D0
:1005D0000130B3003F0884003308800783160313FB
:1005E0003E08B3003308B600FF3083160313B30090
:1005F0003308B6073608FF3A03190C290A30AB0056
:100600000030AC003608B3003307013E84000A1204
:100610008A150A200A128A11A3000A128A150A20D2
:100620000A128A11A4003808A601A6073708A501F6
:10063000A5070A128A1572240A128A118316031357
:100640002408AE01AE072308AD01AD070A128A15D2
:100650003C240A128A11831603132B08303EB4007F
:100660003408BE003F0A8400831380080319452B19
:100670003E08B3003308A3003F0A840000080A12B2
:100680008A1100210A128A11F42A831603133E08E4
:10069000B3003F08840083130008840033088000FF
:1006A0000130B3003F08840033088007F42A831622
:1006B0000313B101B2010800831203134308F000D1
:1006C0004408F1004508F2004008F3004108F40036
:1006D0004208F5000A128A15FB240A128A11031C2B
:1006E0007A2B003083120313C0000030C1000030A9
:1006F000C2000800831203134308F0004408F1000D
:100700004508F2004008F3004108F4004208F500F3
:100710000A128A15FB240A128A110318FE2B83126F
:1007200003134608F0004708F1004808F2004008AB
:10073000F3004108F4004208F5000A128A15FB2470
:100740000A128A11031CFE2B831203134608A3000E
:100750004708A4004808A5004308A0004408A100D9
:100760004508A2000A128A1577220A128A118312FA
:1007700003132008A6002108A7002208A8000A12D7
:100780008A11D3260A128A11831203132308B00098
:100790002408B1002508B2004008A3004108A400C5
:1007A0004208A5004308A0004408A1004508A20093
:1007B0000A128A1577220A128A118312031320085B
:1007C000A6002108A7002208A8000A128A11D32631
:1007D0000A128A11831203132308B3002408B400F9
:1007E0002508B5000A128A1548278312031330081A
:1007F000C0003108C1003208C20008008312031390
:100800004608F0004708F1004808F2004008F300ED
:100810004108F4004208F5000A128A15FB240A1266
:100820008A110318822C831203134908F0004A0826
:10083000F1004B08F2004008F3004108F4004208C0
:10084000F5000A128A15FB240A128A11031C822C55
:10085000831203134608A3004708A4004808A50014
:100860004908A0004A08A1004B08A2000A128A15F4
:1008700077220A128A11831203132008A600210886
:10088000A7002208A8000A128A11D3260A128A1188
:10089000831203132308B0002408B1002508B20016
:1008A0004008A3004108A4004208A5004908A00090
:1008B0004A08A1004B08A2000A128A1577220A12E0
:1008C0008A11831203132008A6002108A70022081A
:1008D000A8000A128A11D3260A128A11831203135E
:1008E0002308B3002408B4002508B5000A128A15AD
:1008F0004827831203133008C0003108C1003208B2
:10090000C2000800831203134908F0004A08F100EE
:100910004B08F2004008F3004108F4004208F500DB
:100920000A128A15FB240A128A11031808000030E3
:1009300083120313C0000030C1000030C200080061
:100940008C1A8C120C1B0C130B1DB82DEE300A12D6
:100950008A1561220A128A11013083160313540288
:10096000F330031953020318BF2C0130D3070318C7
:10097000D40A0030D407831203130617B72D831649
:100980000313D301D401831203130F088316031337
:10099000D601D607831203130E0883160313D5015D
:1009A000D5075608F901F9075508F801F8070A12A2
:1009B0008A15AE220A128A11780883120313B30033
:1009C0007908B4007A08B5000030B000E030B1001A
:1009D0004030B2000A128A1548270A128A1183127F
:1009E00003133008CF003108D0003208D1000030A6
:1009F000CC00F030CD004230CE000A128A11202007
:100A00000A128A11831203134C08DC004D08DD0022
:100A10004E08DE000A128A152B260A128A1183124A
:100A200003135D0883160313D801D8078312031339
:100A30005C0883160313D701D707831203138E01B3
:100A40008F016030C9009F30CA004530CB00403074
:100A5000C6009C30C7004530C8002030C300993024
:100A6000C4004530C500831603135808F901F9077F
:100A70005708F801F8070A128A15AE220A128A11DD
:100A8000780883120313C0007908C1007A08C200F5
:100A90000A128A115C230A128A1183120313400876
:100AA00083160313A0008312031341088316031354
:100AB000A10083120313420883160313A200200827
:100AC00083120313A0008316031321088312031358
:100AD000A10083160313220883120313A2000A1233
:100AE0008A1577220A128A11831203132008A6009E
:100AF0002108A7002208A8000030A3008030A4002D
:100B00003F30A5000A128A11D3260A128A118312D5
:100B100003132308CF002408D0002508D100C030DB
:100B2000CC007F30CD004430CE000A128A11202044
:100B30000A128A11831203134C08DC004D08DD00F1
:100B40004E08DE000A128A152B260A128A11831219
:100B500003135D08EB01EB075C08EA01EA070A12E0
:100B60008A15F0220A128A118312031306130B113D
:100B70000C180C108C198C116F08FF006E088A007D
:100B80006D0884006C0E8300FE0E7E0E090001309D
:100B90008316031385000130831203138500831627
:100BA0000313860183120313860181308316031316
:100BB0008700C03083120313870083160313880154
:100BC000831203138801831603138901831203130D
:100BD0008901033090008E018F01003083160313CA
:100BE000B5000130B400C230B3000030B2000A12C8
:100BF0008A15B2240A128A110A128A1581220A124F
:100C00008A110A128A159C220A128A110A128A1162
:100C1000DC270A128A110A128A15C0250A128A11C3
:100C20000B178B17333083160313A4008030A500F5
:100C30000A128A150B240A128A11503083160313E4
:100C4000A4008030A5000A128A150B240A128A110A
:100C50000A128A15C0250A128A1183160313A301EA
:100C600000300A128A152A230A128A116430831668
:100C70000313A5008030A6000A128A15DA230A128F
:100C80008A11003083160313A3000030A4000A1257
:100C90008A154A230A128A11003083160313A3000F
:100CA0000030A4000A128A156B230A128A11EE3052
:100CB0000A128A1567220A128A1118308316031342
:100CC000CB006130CA006E30C900C90B652ECA0B5B
:100CD000652ECB0B652E00007B3083160313C900F5
:100CE0004908C0005808C201C2075708C101C1071E
:100CF000DD300A128A150B230A128A11DD308316A1
:100D00000313A4000030A5000A128A150B240A124E
:100D10008A114D3083160313A4008030A5000A12F7
:100D20008A150B240A128A110A128A15B1230A1293
:100D30008A1183160313A30100300A128A152A238D
:100D40000A128A11753083160313A5008030A6009D
:100D50000A128A15DA230A128A110630831603133F
:100D6000C9004908A30000300A128A152A230A1272
:100D70008A11DD3083160313A5000030A6000A1285
:100D80008A15DA230A128A11053083160313CB0061
:100D9000AD30CA00E030C900C90BCC2ECA0BCC2E36
:100DA000CB0BCC2E6C2E831203132308A90024082E
:100DB000AA002508AB0003102A0D2B0DAC002C084F
:100DC000AF002608A9002708AA002808AB000310D6
:100DD0002A0D2B0DAC002C08AE002F080319FC2E99
:100DE0002E082F020318032F2F03FF3A2E07A90006
:100DF00019302902031C032F2608A3002708A4008A
:100E00002808A50008002E08031908002F082E0244
:100E10000318122F2E03FF3A2F07A90019302902B9
:100E2000031808000630A9002908AD00A51BAD175E
:100E3000A81B2D17A417FF30A305FF30A405003011
:100E4000A505A717FF30A605FF30A7050030A805A8
:100E50002E082F020318522F01300310A60DA70DE4
:100E6000A80DFF3E031D2D2F0130AE022E082F06C8
:100E700003194D2F0130AD022D08073903194D2FED
:100E80002C2F01300310A50CA40CA30CFF3E031D56
:100E9000422F0130A9002908AF072F082E06031999
:100EA0007B2F412F2F082E0203187B2F01300310B8
:100EB000A30DA40DA50DFF3E031D572F0130AF025A
:100EC0002E082F060319772F0130AD022D080739A0
:100ED0000319772F562F01300310A80CA70CA60C6E
:100EE000FF3E031D6C2F0130A9002908AE072F0813
:100EF0002E06031D6B2FAD1F8D2FFF30A306FF3075
:100F0000A406FF30A5060130A30700300318013006
:100F1000A407003003180130A5072D1F9F2FFF30B5
:100F2000A606FF30A706FF30A8060130A60700304E
:100F300003180130A707003003180130A807AD01DE
:100F40002308A607240803110318240A031DA70772
:100F5000250803110318250A031DA807A81FC22F7F
:100F6000FF30A606FF30A706FF30A8060130A6070F
:100F7000003003180130A707003003180130A8071C
:100F8000AD01AD0A2608F0002708F1002808F2009C
:100F90002F08A9002908F3002D08AA002A08F40048
:100FA0000A128A155825700883120313A3007108CA
:100FB000A4007208A50008008312031392141210F3
:100FC00012139212121292111215FF30831603138C
:100FD000920083120313971517159714171483168D
:100FE00003130C15831203130C119D151D159D146D
:100FF0001D14831603130D14831203130D10080020
:10100000FF1B0A2883137F1883170008840A03191B
:10101000FF0A080008308A000408840A82070034A6
:10102000013400340A34003464340034E8340334C6
:10103000103427340A340D3420342D342D342D341B
:101040002D342D342D342D34203445345334543440
:101050004F34553452344F342034443445342034E2
:10106000503449344C344834413420342D342D34F8
:101070002D342D342D342D342D3420340A340D34B8
:101080002034003449346E34693463346934613453
:101090006C3469347A3461346E3464346F3420349F
:1010A0006F34203450344934433431343634463488
:1010B00038343734373441340A340D34003455343D
:1010C00053344134523454343A342034313431348A
:1010D00035342E3432343034303462347034733436
:1010E0000A340D34003449346E346934633469345D
:1010F00061346C3469347A3461346E3464346F34FE
:101100002E342E342E340034523450344D343A348C
:1011100020340034253430343434643400343134F1
:101120000034323400343334003434340034353451
:02113000003489
:1014C200F0007008831203138100080083160313CF
:1014D200A300230883120313810008006400800123
:1014E200840A0406031900340406702A83120313C3
:1014F200220821042004031908008030A2060800F3
:101502008316031381120112811101158114011432
:101512000B118B16080083160313A400A3013A30A3
:10152200240203189A2A30302402031C9A2AA301A7
:10153200A30A230C0800831603139F179F151F1578
:101542009F141F10831203139F171F138316031375
:101552000C13831203130C1308007808F0007908A7
:10156200F100F2018E30FB007B08F300F4010A1255
:101572008A1558257008F8007108F9007208FA00F7
:10158200080083160313A4008312031309108316A1
:101592000313240883120313880089143D30831631
:1015A2000313A300A30BD32A831203138910080089
:1015B20083160313A400831203130914831603135F
:1015C200240883120313880089143D308316031301
:1015D200A300A30BEA2A83120313891008008312C3
:1015E20003136B08FD006A08FC007D0DFD0CFC0C6A
:1015F2007D0DFD0CFC0C7C089B006A08FC0003308E
:101602000310FC0DFF3E031D012B03107C0D0C3853
:101612009D00080083160313C5004508C300430854
:10162200C700C801C130C3004308C6004008C30058
:101632004308B100C630C4004408B200C7300A12E1
:101642008A1109218316031347088400831380013A
:10165200080083160313A5008312031309108316CF
:101662000313A508031D382B2308803E3C2B831649
:1016720003132308C03E83120313880089143D30EC
:1016820083160313A400A40B442B831203138910A3
:101692000800831603132408A6002308A500260DBC
:1016A200A60CA50C260DA60CA50C25088312031367
:1016B2009500831603132308A50003300310A50D1C
:1016C200FF3E031D5F2B0310250D0C3883120313FD
:1016D20097000800831603132408A6002308A50018
:1016E200260DA60CA50C260DA60CA50C250883120A
:1016F20003139B00831603132308A5000330031072
:10170200A50DFF3E031D802B0310250D0C388312FF
:1017120003139D00080083160313A701A801231CCD
:10172200982B2508A7070318A80A2608A80701303E
:101732000310A50DA60DFF3E031D992B01300310CA
:10174200A40CA30CFF3E031DA02B24082304031D9D
:10175200902B2808A401A4072708A301A3070800C7
:1017620001300A128A15C2220A128A150C30831617
:101772000313A600F730A500A50BBD2BA60BBD2BAE
:101782000C300A128A15C2220A128A153D308316BB
:101792000313A500A50BCB2B06300A128A15C22211
:1017A2000A128A153D3083160313A500A50BD72B09
:1017B200080083160313260883120313FF008316FF
:1017C200031325088400831203130A128A150020CA
:1017D2000A128A1500380319080083160313260813
:1017E20083120313FF008316031325088400831258
:1017F20003130A128A1500200A128A150A128A1580
:10180200D9220A128A15013083160313A507031879
:10181200A60ADA2B83160313250883120313FF008B
:101822008316031324088400831203130A128A15F1
:1018320000200A128A1500380319080083160313C0
:10184200250883120313FF00831603132408840060
:10185200831203130A128A1500200A128A150A1229
:101862008A11F3200A128A15013083160313A40782
:101872000318A50A0B2C831603132C082B04031937
:101882006B2CB001B00AAC1B522C01300310AB0D13
:10189200AC0DFF3E031D472C0130AF002F08B007EF
:1018A200442C2C082E02031D582C2B082D02031C3D
:1018B200602C2B08AD022C08031CAE03AE020130D3
:1018C2000310AC0CAB0CFF3E031D612C0130B002C7
:1018D200031D522C2E08AC01AC072D08AB01AB073F
:1018E200080083160313A801A9012408230403197D
:1018F200AB2CAA01AA0AA41B8A2C01300310A30D47
:10190200A40DFF3E031D7F2C0130A7002708AA0764
:101912007C2C01300310A80DA90DFF3E031D8B2C5A
:1019220024082602031D972C23082502031CA02C41
:101932002308A5022408031CA603A60228140130CA
:101942000310A40CA30CFF3E031DA12C0130AA021C
:10195200031D8A2C2908A401A4072808A301A307B0
:101962000800831603133208B6003308B7003408A0
:10197200B8003508B90004300310B60DB70DB80D24
:10198200B90DFF3E031DBD2C3908A6003808A5007D
:101992003708A4003608A3000130AA001930A900B4
:1019A2004030A8000030A7000A128A15B926831613
:1019B20003132308FF3E9900981318139816181260
:1019C20018159814181083120313981718139812E5
:1019D20018169811181198101810831603130C1268
:1019E200831203130C12831603138C168312031330
:1019F2008C120800F21F222D0030F6000030F70092
:101A02008030F8007009F9007109FA007209FB00D0
:101A1200F90A0319FA0A0319FB0A7908F6077A0880
:101A220003187A0F152D162DF7077B0803187B0F65
:101A32001B2D1C2DF8077608F0007708F1007808B6
:101A4200F200F51F492D0030F6000030F70080301B
:101A5200F8007309F9007409FA007509FB00F90A24
:101A62000319FA0A0319FB0A7908F6077A08031818
:101A72007A0F3C2D3D2DF7077B0803187B0F422D73
:101A8200432DF8077608F3007708F4007808F5008C
:101A92008030F2068030F50675087202031D0800D8
:101AA20074087102031D08007308700208007308AD
:101AB2000319602D720871047004031D732D003028
:101AC200F0000030F1000030F20008000130F500B3
:101AD2007508F30701300310F20CF10CF00CFF3E15
:101AE200031D6C2DFE30720503198E2D672D0130FA
:101AF200F5007508F3070130F007003003180130D4
:101B0200F107003003180130F20701300310F20C24
:101B1200F10CF00CFF3E031D872DFF3072050319F7
:101B22009D2D782D0130F30201300310F00DF10DDF
:101B3200F20DFF3E031D962DF11F932D7318A72D55
:101B4200FF30F0057F30F105FF30F2050310F30C92
:101B52007308F500F601F70110300310F50DF60DCC
:101B6200F70DFF3E031DAE2D7508F0047608F10453
:101B72007708F204740803190800F21708008316A4
:101B820003139F111F159F101F105A30A600C33058
:101B9200A500A50BCA2DA60BCA2D30300A128A1534
:101BA200C2220A128A15183083160313A600EF30D8
:101BB200A500A50BDA2DA60BDA2D30300A128A15F4
:101BC200C2220A128A15993083160313A500A50BA7
:101BD200E82D30300A128A15C2220A128A153D30C7
:101BE20083160313A500A50BF42D38300A128A15AB
:101BF200C2220A128A153D3083160313A500A50BD3
:101C0200002E01300A128A15C2220A128A150C30DD
:101C120083160313A600F730A500A50B0E2EA60B04
:101C22000E2E0C300A128A15C2220A128A153D3073
:101C320083160313A500A50B1C2E06300A128A1563
:101C4200C2220A128A153D3083160313A500A50B82
:101C5200282E0800831203135C08E0005D08E100EF
:101C62005E08E2000310610D620DE3006308E90003
:101C7200E908031D452E0030DF000030DE00003091
:101C8200DD000030DC0008005C08E0005D08E100D7
:101C92005E08E20017300310E20CE10CE00CFF3E9C
:101CA200031D4C2E6008E3006308E400DD17FF30DB
:101CB200DC05FF30DD050030DE055C08E5005D086F
:101CC200E6005E08E700E8018E30E902E91F872E90
:101CD2006908803A8F3E0318772E0030DF0000300B
:101CE200DE000030DD000030DC00080001300310AF
:101CF200E80CE70CE60CE50CFF3E031D782E0130E4
:101D0200E0006008E9070319A22E772E1830690255
:101D1200031C9F2E0030DF000030DE000030DD00AB
:101D22000030DC0008000130E0000310E50DE60D94
:101D3200E70DE80DE00B962E0130E902E908031DDC
:101D4200942E64080319B02EE509E609E709E809AB
:101D5200E50A0319E60A0319E70A0319E80A6808FB
:101D6200DF006708DE006608DD006508DC000800A9
:101D720083160313AD01A61FCB2EA309A409A5093F
:101D8200A609A30A0319A40A0319A50A0319A60A94
:101D9200AD01AD0AAA1FDC2EA709A809A909AA0943
:101DA200A70A0319A80A0319A90A0319AA0A0130E2
:101DB200AB002B08AD060030B1000030B00000309F
:101DC200AF000030AE0026082504240423040319C2
:101DD200312FAC01AC0AA61BFC2E0130AB00031064
:101DE200A30DA40DA50DA60DAB0BF02E0130AB007B
:101DF2002B08AC07EC2E0130AB000310AE0DAF0D7B
:101E0200B00DB10DAB0BFE2E26082A02031D132FB7
:101E120025082902031D132F24082802031D132F4E
:101E220023082702031C242F2308A7022408031CCB
:101E3200240FA8022508031C250FA9022608031C4B
:101E4200260FAA022E1401300310A60CA50CA40C16
:101E5200A30CFF3E031D252F0130AC02031DFC2EF7
:101E62002D0803193F2FAE09AF09B009B109AE0A17
:101E72000319AF0A0319B00A0319B10A3108A600FF
:101E82003008A5002F08A4002E08A3000800831222
:101E920003133308B6003408B7003508B80003103E
:101EA200370D380DB9003908BE00BE08031D602F7A
:101EB2000030B0000030B1000030B200080030083D
:101EC200B6003108B7003208B8000310370D380DDC
:101ED200B9003908BF00BF08031D762F0030B000DB
:101EE2000030B1000030B20008000030BB0000300A
:101EF200BC000030BD0089303F07B6003608BE0284
:101F02003308B6003408B7003508B80010300310A3
:101F1200B80CB70CB60CFF3E031D882F3608B9006B
:101F22003908BF003008B6003108B7003208B800DF
:101F320010300310B80CB70CB60CFF3E031D9A2FDD
:101F42003608B9003908BF068030B6003608BF052A
:101F5200B417FF30B305FF30B4050030B505B11733
:101F6200FF30B005FF30B1050030B2051830B600C1
:101F72003608BA0001300310BB0DBC0DBD0DFF3E8B
:101F8200031DBC2F32083502031DCD2F3108340248
:101F9200031DCD2F30083302031CDA2F3008B302A1
:101FA2003108031C310FB4023208031C320AB50295
:101FB2003B1401300310B30DB40DB50DFF3E031DEC
:101FC200DB2F0130BA02031DBB2F3B08F0003C0897
:101FD200F1003D08F2003E08B6003608F3003F0863
:101FE200B7003708F4000A128A15582570088312C0
:0E1FF2000313B0007108B1007208B2000800BD
:02400E0032FF7F
:00000001FF
