:060000000A128A11122809
:10000800FE00030E83120313CE000408CF000A0873
:10001800D0007F08D1000A128A11AC2E0A128A1168
:100028001528FC01FD018313523084005F300A1249
:100038008A1507260A128A11C2308400CE300A12A5
:100048008A15072683010A128A11E12983160313E8
:10005800BD00AF30B1003108B4000130831603137E
:10006800AE07FF302E0784000A128A110A250A12E9
:100078008A11B1003108BE00BE080319DA293E080A
:10008800253A031953283E08B1003D088400310879
:10009800831380000130B1003108BD073128BB014E
:1000A800BC01BA015C283A150130B1003108AE072D
:1000B8002E0884000A128A110A250A128A11303A77
:1000C8000319572867282E0884000A128A110A255E
:1000D8000A128A110A128A1527260A128A11031C83
:1000E800B72883160313BB01BC010A308316031318
:1000F800A0000030A1003C08A301A3073B08A2010F
:10010800A2070A128A15DA260A128A11831603131D
:100118002108BC01BC072008BB01BB072E088400CE
:100128000A128A110A250A128A11D03EB100FF303C
:1001380003180030B2003108BB070318BC0A3208A4
:10014800BC070130B1003108AE072E0884000A123E
:100158008A110A250A128A110A128A1527260A12F2
:100168008A1103187928013083160313AE07FF306C
:100178002E0784000A128A110A250A128A11BE0063
:10018800003A0319DA29643A0319CE280D3A0319FB
:10019800CE283128831603133408840083130008FB
:1001A800B600840A0008B7000230B1003108B4076D
:1001B800B71FE7280330B1003108BA04B609B709F8
:1001C800B60A0319B70ABE01BE0A3E08053A031962
:1001D8000E293E08B1003107013E84000A128A1137
:1001E8000A250A128A11B2000A128A110A250A126D
:1001F8008A11B30033083702031D04293208360276
:10020800031C0E290130B1003108BE073E08053A2B
:10021800031DED283C083B0403191C293A0803393F
:1002280003191C29FF30BB070318BC0AFF30BC07A1
:100238003E08B100B201B11BB2033208803AB300E4
:100248003C08803A3302031D2B293B08310203186E
:100258003B29831603133E08B100B201B11BB20358
:100268003108BB023208031CBC03BC023F298316B9
:100278000313BB01BC013A1D66293A080339031967
:1002880050292D30B1003D088400310883138000C7
:100298000130B1003108BD073C083B0403198E2921
:1002A8003030B1003D0884003108831380000130EC
:1002B800B1003108BD07FF30BB070318BC0AFF3087
:1002C800BC0750293C083B0403197F292030B100A2
:1002D8003D0884003108831380000130B1003108E3
:1002E800BD07FF30BB070318BC0AFF30BC073C083A
:1002F8003B04031D6A293A08033903198E292D3056
:10030800B1003D0884003108831380000130B1003A
:100318003108BD073E08B1003108B500FF30B10013
:100328003108B5073508FF3A031931280A30A80003
:100338000030A9003508B1003107013E84000A12D7
:100348008A110A250A128A11A0000A128A110A259E
:100358000A128A11A1003708A301A3073608A201CF
:10036800A2070A128A15C0270A128A1183160313D4
:100378002108AB01AB072008AA01AA070A128A15AF
:100388008A270A128A11831603132808303EB200FE
:100398003208BE003E08B1003D08840031088313CE
:1003A80080000130B1003108BD079229831603137C
:1003B8003D0884008313800108000130831603136D
:1003C8008500013083120313850083160313860109
:1003D8008312031386018130831603138700C0300C
:1003E80083120313870083160313880183120313F0
:1003F80088018316031389018312031389010330CB
:1004080090008E018F01003083160313B200013073
:10041800B100C230B0000030AF000A128A119D2727
:100428000A128A110A128A150F260A128A110A124A
:100438008A1537260A128A110A128A15B6260A124E
:100448008A110A128A1132270A128A110B178B177E
:10045800333083160313A1008030A2000A128A15D4
:1004680059270A128A11503083160313A1008030CD
:10047800A2000A128A1559270A128A110A128A1129
:1004880032270A128A1183160313A00100300A12B8
:100498008A11E0240A128A11643083160313A20019
:1004A8008030A3000A128A1528270A128A11003000
:1004B80083160313A0000030A1000A128A157426BF
:1004C8000A128A11203083160313A0000330A100FA
:1004D8000A128A1595260A128A11EE300A128A150E
:1004E800FF250A128A11183083160313C1006130E0
:1004F800C0006E30BF00BF0B7F2AC00B7F2AC10B24
:100508007F2A00007B3083160313BF003F08AE002C
:100518004308B001B0074208AF01AF07C4300A1260
:100528008A112A200A128A11C43083160313A100E3
:100538000030A2000A128A1559270A128A114D3072
:1005480083160313A1008030A2000A128A155927C6
:100558000A128A110A128A15FF260A128A118316AC
:100568000313A00100300A128A11E0240A128A112A
:10057800753083160313A2008030A3000A128A156F
:1005880028270A128A11063083160313BF003F0872
:10059800A00000300A128A11E0240A128A11C4301D
:1005A80083160313A2000030A3000A128A15282715
:1005B8000A128A11053083160313C100AD30C0003A
:1005C800E030BF00BF0BE62AC00BE62AC10BE62AC3
:1005D800862A831203133008B6003108B7003208A0
:1005E800B8000310370D380DB9003908BA00BA0839
:1005F800031D052B0030B0000030B1000030B20000
:1006080008003308B6003408B7003508B8000310EE
:10061800370D380DB9003908BF00BF08031D1B2B63
:100628000030B0000030B1000030B20008003F08D0
:100638007B3EB6003608BA073008B6003108B70066
:100648003208B80010300310B80CB70CB60CFF3ED7
:10065800031D272B3608B9003908BF003308B60038
:100668003408B7003508B80010300310B80CB70CC0
:10067800B60CFF3E031D392B3608B9003908BF06F2
:100688008030B6003608BF05B117B417FF30B30580
:10069800FF30B4050030B5050030BB000030BC00A9
:1006A8000030BD000730B6003608BE00301C6A2B8B
:1006B8003308BB07340803110318340A031DBC07A9
:1006C800350803110318350A031DBD07013003104F
:1006D800B20CB10CB00CFF3E031D6B2B01300310A4
:1006E800B30DB40DB50DFF3E031D732B0130BE02D3
:1006F800031D5A2B0930B6003608BE00301C922B59
:100708003308BB07340803110318340A031DBC0758
:10071800350803110318350A031DBD0701300310FE
:10072800B20CB10CB00CFF3E031D932B013003102B
:10073800BD0CBC0CBB0CFF3E031D9B2B0130BE0245
:10074800031D822B3B08F0003C08F1003D08F20035
:100758003A08B6003608F3003F08B7003708F40037
:100768000A128A117824700883120313B0007108E2
:10077800B1007208B2000800831203132308A60010
:100788002408A7002508A8000310270D280DA90094
:100798002908AE00AE08031DD82B0030A000003099
:1007A800A1000030A20008002008A6002108A70028
:1007B8002208A8000310270D280DA9002908AF005A
:1007C800AF08031DEE2B0030A0000030A100003060
:1007D800A20008000030AB000030AC000030AD00D3
:1007E80089302F07A6002608AE022308A600240891
:1007F800A7002508A80010300310A80CA70CA60C09
:10080800FF3E031D002C2608A9002908AF00200878
:10081800A6002108A7002208A80010300310A80C81
:10082800A70CA60CFF3E031D122C2608A9002908B8
:10083800AF068030A6002608AF05A417FF30A30531
:10084800FF30A4050030A505A117FF30A005FF3033
:10085800A1050030A2051830A6002608AA0001301C
:100868000310AB0DAC0DAD0DFF3E031D342C22085B
:100878002502031D452C21082402031D452C2008B0
:100888002302031C522C2008A3022108031C210F59
:10089800A4022208031C220AA5022B14013003100B
:1008A800A30DA40DA50DFF3E031D532C0130AA0274
:1008B800031D332C2B08F0002C08F1002D08F20042
:1008C8002E08A6002608F3002F08A7002708F40022
:1008D8000A128A117824700883120313A000710881
:1008E800A1007208A200080073080319802C72087E
:1008F80071047004031D932C0030F0000030F100E7
:100908000030F20008000130F5007508F3070130E7
:100918000310F20CF10CF00CFF3E031D8C2CFE3082
:1009280072050319AE2C872C0130F5007508F30702
:100938000130F007003003180130F10700300318C8
:100948000130F20701300310F20CF10CF00CFF3EFD
:10095800031DA72CFF3072050319BD2C982C0130FC
:10096800F30201300310F00DF10DF20DFF3E031DEF
:10097800B62CF11FB32C7318C72CFF30F0057F304D
:10098800F105FF30F2050310F30C7308F500F601CA
:10099800F70110300310F50DF60DF70DFF3E031D9E
:1009A800CE2C7508F0047608F1047708F204740870
:1009B80003190800F217080083160313A200831214
:1009C8000313091083160313A208031DEE2C200835
:1009D800803EF22C831603132008C03E83120313B3
:1009E800880089143D3083160313A100A10BFA2C4B
:1009F8008312031389100800FF1B0A2D83137F1825
:100A080083170008840A0319FF0A080005308A00C2
:100A18000408840A82070034013400340A3400349C
:100A280064340034E8340334103427340A340D3481
:100A380020342D342D342D342D342D342D342D34B3
:100A480020344534533454344F34553452344F34AD
:100A58002034443445342034503449344C344834F8
:100A6800413420342D342D342D342D342D342D346F
:100A78002D3420340A340D342034003449346E3493
:100A880069346334693461346C3469347A34613478
:100A98006E3464346F3420346F3420345034493425
:100AA80043343134363446343834373437344134C7
:100AB8000A340D34003455345334413452345434E8
:100AC8003A3420343134313435342E3432343034FD
:100AD80030346234703473340A340D340034493499
:100AE8006E3469346334693461346C3469347A340B
:100AF80061346E3464346F342E342E342E34003422
:100B0800523450344D343A3420340034253430349F
:100B180034346434003483160313AA01A31FA12DAF
:100B2800A009A109A209A309A00A0319A10A031986
:100B3800A20A0319A30AAA01AA0AA71FB22DA40987
:100B4800A509A609A709A40A0319A50A0319A60A4B
:100B58000319A70A0130A8002808AA060030AE0029
:100B68000030AD000030AC000030AB002308220498
:100B7800210420040319072EA901A90AA31BD22DB9
:100B88000130A8000310A00DA10DA20DA30DA80B04
:100B9800C62D0130A8002808A907C22D0130A800D9
:100BA8000310AB0DAC0DAD0DAE0DA80BD42D230865
:100BB8002702031DE92D22082602031DE92D21081D
:100BC8002502031DE92D20082402031CFA2D200804
:100BD800A4022108031C210FA5022208031C220FCE
:100BE800A6022308031C230FA7022B1401300310AD
:100BF800A30CA20CA10CA00CFF3E031DFB2D013081
:100C0800A902031DD22D2A080319152EAB09AC0918
:100C1800AD09AE09AB0A0319AC0A0319AD0A0319E9
:100C2800AE0A2E08A3002D08A2002C08A1002B084C
:100C3800A0000800831203134008C4004108C5003F
:100C48004208C6000310450D460DC7004708CD00F1
:100C5800CD08031D382E0030C3000030C20000301C
:100C6800C1000030C00008004008C4004108C500A9
:100C78004208C60017300310C60CC50CC40CFF3E52
:100C8800031D3F2E4408C7004708C800C117FF309E
:100C9800C005FF30C1050030C2054008C900410841
:100CA800CA004208CB00CC018E30CD02CD1F7A2E6F
:100CB8004D08803A8F3E03186A2E0030C30000307A
:100CC800C2000030C1000030C0000800013003102D
:100CD800CC0CCB0CCA0CC90CFF3E031D6B2E01308B
:100CE800C4004408CD070319952E6A2E18304D020A
:100CF800031C922E0030C3000030C2000030C10037
:100D08000030C00008000130C4000310C90DCA0D2E
:100D1800CB0DCC0DC40B892E0130CD02CD08031D9F
:100D2800872E48080319A32EC909CA09CB09CC097B
:100D3800C90A0319CA0A0319CB0A0319CC0A4C08B1
:100D4800C3004B08C2004A08C1004908C000080097
:100D58008C1A8C120C1B0C130B1D232FEE300A124D
:100D68008A15F9250A128A110130831203135A02CF
:100D7800F330031959020318C92E0130D907031893
:100D8800DA0A0030DA070617222FD901DA010F082C
:100D9800FD01FD070E08FC01FC077D08F901F907B4
:100DA8007C08F801F8070A128A1549260A128A11DE
:100DB800780883120313A3007908A4007A08A50011
:100DC8000030A000E030A1004030A2000A128A11D1
:100DD800C0230A128A11831203132008B3002108C2
:100DE800B4002208B5000030B000F030B100423045
:100DF800B2000A128A11ED220A128A118312031311
:100E08003008C0003108C1003208C2000A128A1135
:100E18001E260A128A11831203134108831603132C
:100E2800C301C30783120313400883160313C201C7
:100E3800C207831203138E018F0106130B110C18BE
:100E48000C108C198C115108FF0050088A004F08AB
:100E580084004E0E8300FE0E7E0E090083160313D7
:100E68009F111F159F101F105A30A300C330A200F6
:100E7800A20B3C2FA30B3C2F30300A128A155D269B
:100E88000A128A11183083160313A300EF30A20048
:100E9800A20B4C2FA30B4C2F30300A128A155D265B
:100EA8000A128A11993083160313A200A20B5A2F33
:100EB80030300A128A155D260A128A113D308316CF
:100EC8000313A200A20B662F38300A128A155D267A
:100ED8000A128A113D3083160313A200A20B722F47
:100EE80001300A128A155D260A128A110C308316FF
:100EF8000313A300F730A200A20B802FA30B802FAF
:100F08000C300A128A155D260A128A113D308316A2
:100F18000313A200A20B8E2F06300A128A155D2633
:100F28000A128A113D3083160313A200A20B9A2FCE
:100F38000800831603132F08B3003008B4003108E3
:100F4800B5003208B60004300310B30DB40DB50D6A
:100F5800B60DFF3E031DA82F3608A3003508A200D2
:100F68003408A1003308A0000130A7001930A600FA
:100F78004030A5000030A4000A128A118F2583167C
:100F880003132008FF3E9900981318139816181297
:100F98001815981418108312031398171813981219
:100FA80018169811181198101810831603130C129C
:100FB800831203130C12831603138C168312031364
:100FC8008C12080083160313A1008312031309145B
:100FD80083160313210883120313880089143D30F4
:100FE80083160313A000A00BF72F83120313891095
:020FF8000800EF
:101BF200F000700883120313810008008316031398
:101C0200A0002008831203138100080064008001F1
:101C1200840A0406031900340406082E83160313EB
:101C22008112011281110115811401140B118B16FD
:101C3200080083160313A00083120C1E1D2E8316A8
:101C42000313200883120313990008008316031359
:101C5200A100A0013A3021020318352E30302102B2
:101C6200031C352EA001A00A200C080083160313C2
:101C72009F179F151F159F141F10831203139F1781
:101C82001F13831603130C13831203130C13080080
:101C92007808F0007908F100F2018E30FB007B0831
:101CA200F300F4010A128A1178247008F80071080E
:101CB200F9007208FA00080083160313A1008312C8
:101CC20003130910831603132108831203138800D8
:101CD20089143D3083160313A000A00B6E2E8312CD
:101CE200031389100800831603132108A300200898
:101CF200A200230DA30CA20C230DA30CA20C2208FC
:101D0200831203139500831603132008A2000330E5
:101D12000310A20DFF3E031D892E0310220D0C3865
:101D22008312031397000800831603132108A300EC
:101D32002008A200230DA30CA20C230DA30CA20CBD
:101D42002208831203139B00831603132008A200A8
:101D520003300310A20DFF3E031DAA2E0310220D15
:101D62000C38831203139D0008008312031392148C
:101D7200121012139212121292111215FF308316C0
:101D82000313920083120313971517159714171450
:101D9200831603130C15831203130C119D151D15C5
:101DA2009D141D14831603130D14831203130D10B7
:101DB200080083160313A401A501201CE62E2208A5
:101DC200A4070318A50A2308A50701300310A20DD2
:101DD200A30DFF3E031DE72E01300310A10CA00C42
:101DE200FF3E031DEE2E21082004031DDE2E2508D2
:101DF200A101A1072408A001A007080001300A12CE
:101E02008A155D260A128A150C3083160313A30065
:101E1200F730A200A20B0B2FA30B0B2F0C300A12D0
:101E22008A155D260A128A153D3083160313A20015
:101E3200A20B192F06300A128A155D260A128A157C
:101E42003D3083160313A200A20B252F0800831630
:101E52000313230883120313FF00831603132208BC
:101E62008400831203130A128A1100250A128A15AA
:101E7200003803190800831603132308831203137F
:101E8200FF008316031322088400831203130A122D
:101E92008A1100250A128A150A128A11E6270A12E5
:101EA2008A15013083160313A2070318A30A282FE9
:101EB20083160313220883120313FF0083160313EE
:101EC20021088400831203130A128A1100250A12C0
:101ED2008A15003803190800831603132208831297
:101EE2000313FF00831603132108840083120313D4
:101EF2000A128A1100250A128A150A128A151A264E
:101F02000A128A15013083160313A1070318A20AC5
:101F1200592F83160313290828040319B92FAD0179
:101F2200AD0AA91BA02F01300310A80DA90DFF3E79
:101F3200031D952F0130AC002C08AD07922F290804
:101F42002B02031DA62F28082A02031CAE2F2808E5
:101F5200AA022908031CAB03AB0201300310A90C2F
:101F6200A80CFF3E031DAF2F0130AD02031DA02FB1
:101F72002B08A901A9072A08A801A80708008316A7
:101F82000313A501A601210820040319F92FA701B3
:101F9200A70AA11BD82F01300310A00DA10DFF3EEF
:101FA200031DCD2F0130A4002408A707CA2F01303A
:101FB2000310A50DA60DFF3E031DD92F21082302F4
:101FC200031DE52F20082202031CEE2F2008A20287
:101FD2002108031CA303A302251401300310A10C42
:101FE200A00CFF3E031DEF2F0130A702031DD82FC7
:0E1FF2002608A101A1072508A001A0070800EC
:02400E0032FF7F
:00000001FF
