:100000000A128A1112280800FE00030E831203133D
:10001000E8000408E9000A08EA007F08EB000A1279
:100020008A15C32E0A128A111528EC01ED01EE0182
:10003000EF018313CD308400E4300A168A114C2678
:100040000A128A11831603130A128A1502200A1251
:100050008A11E4000A128A1503200A128A11E500A7
:100060000A128A150420E60083010A128A15B32DAC
:10007000FF1B422883137F1883170008840A031983
:10008000FF0A080000308A000408840A820700344E
:10009000013400340A34003464340034E834033466
:1000A000103427340A340D3420342D342D342D34BB
:1000B0002D342D342D342D342034453453345434E0
:1000C0004F34553452344F34203444344534203482
:1000D000503449344C344834413420342D342D3498
:1000E0002D342D342D342D342D3420340A340D3458
:1000F0002034003449346E346934633469346134F3
:100100006C3469347A3461346E3464346F3420343E
:100110006F34203450344934433431343634463427
:1001200038343734373441340A340D3400345534DC
:1001300053344134523454343A3420343134313429
:1001400035342E34323430343034623470347334D5
:100150000A340D34003449346E34693463346934FC
:1001600061346C3469347A3461346E3464346F349D
:100170002E342E342E340034523450344D343A342C
:100180002034003425343034343464340034313491
:1001900000343234003433340034343400343534F1
:1001A000003401300A168A11A5260A128A110C3071
:1001B00083160313AA00F730A900A90BDD28AA0BA8
:1001C000DD280C300A168A11A5260A128A113D3044
:1001D00083160313A900A90BEB2806300A168A110F
:1001E000A5260A128A113D3083160313A900A90B14
:1001F000F7280800F000700883120313810008003C
:10020000FF0001308A007F08820705290A128A113F
:100210000328FF0001308A007F0882070E290A1296
:100220008A15012883160313C300013083160313B4
:10023000B507FF30350784000A128A1142200A12DE
:100240008A11B7003708C200C2080319602B4208A0
:10025000253A03195029430A84008313800803199F
:100260003E294208B7003708A700430A8400000867
:100270000A128A1100210A128A1115298316031302
:100280004208B7004308840083130008840037083D
:1002900080000130B7004308840037088007152923
:1002A000C001C101BF0159293F150130B70037080E
:1002B000B507350884000A128A1142200A128A11F1
:1002C000303A031954296429350884000A128A1126
:1002D00042200A128A110A168A116F260A128A11FE
:1002E000031CB42983160313C001C1010A3083160D
:1002F0000313A7000030A8004108AA01AA0740087C
:10030000A901A9070A128A1505200A128A11831663
:1003100003132808C101C1072708C001C007350819
:1003200084000A128A1142200A128A11D03EB700B4
:10033000FF3003180030B8003708C0070318C10A9F
:100340003808C1070130B7003708B5073508840001
:100350000A128A1142200A128A110A168A116F267D
:100360000A128A1103187629013083160313B50780
:10037000FF30350784000A128A1142200A128A11BE
:10038000C200003A0319602B643A0319CB290D3AD5
:100390000319CB2915298316031336088400831308
:1003A0000008B70002308007370884000008BB004F
:1003B000840A0008BC00BC1FE6290330B7003708D8
:1003C000BF04BB09BC09BB0A0319BC0AC201C20AAB
:1003D0004208053A03190D2A4208B7003707013EC3
:1003E00084000A128A1142200A128A11B8000A12E5
:1003F0008A1142200A128A11B90039083C02031DF1
:10040000032A38083B02031C0D2A0130B7003708C5
:10041000C2074208053A031DEC29410840040319AC
:100420001B2A3F08033903191B2AFF30C007031892
:10043000C10AFF30C1074208B700B801B71BB803B3
:100440003808803AB9004108803A3902031D2A2A47
:100450004008370203183A2A831603134208B700EC
:10046000B801B71BB8033708C0023808031CC10322
:10047000C1023E2A83160313C001C1013F1D9B2AFE
:100480003F0803390319682A430A8400831380084C
:100490000319572A2D30B7003708A700430A8400F4
:1004A00000080A128A1100210A128A11682A2D30C6
:1004B00083160313B70043088400831300088400E5
:1004C000370880000130B7004308840037088007F0
:1004D00083160313410840040319F72A430A8400D2
:1004E000831380080319812A3030B7003708A7002A
:1004F000430A840000080A128A1100210A128A1194
:10050000922A303083160313B70043088400831304
:1005100000088400370880000130B70043088400D9
:1005200037088007FF3083160313C0070318C10A7A
:10053000FF30C1076A2A410840040319CF2A430A41
:100540008400831380080319B22A2030B7003708CB
:10055000A700430A840000080A128A1100210A1227
:100560008A11C32A203083160313B700430884007E
:10057000831300088400370880000130B700430867
:10058000840037088007FF3083160313C007031861
:10059000C10AFF30C10741084004031D9F2A3F08DC
:1005A00003390319F72A430A8400831380080319C7
:1005B000E62A2D30B7003708A700430A8400000858
:1005C0000A128A1100210A128A11F72A2D30831685
:1005D0000313B7004308840083130008840037081E
:1005E00080000130B7004308840037088007831675
:1005F00003134208B7003708BA00FF30831603130D
:10060000B7003708BA073A08FF3A031915290A3024
:10061000AF000030B0003A08B7003707013E840051
:100620000A128A1142200A128A11A7000A128A119C
:1006300042200A128A11A8003C08AA01AA073B0816
:10064000A901A9070A128A1503210A128A11831621
:1006500003132808B201B2072708B101B1070A1233
:100660008A158F200A128A11831603132F08303E31
:10067000B8003808C200430A8400831380080319B5
:100680004E2B4208B7003708A700430A8400000831
:100690000A128A1100210A128A11FD2A83160313F5
:1006A0004208B70043088400831300088400370819
:1006B00080000130B7004308840037088007FD2A16
:1006C00083160313B501B601080083120313AE00AD
:1006D000013083120313A007FF30200784000A12A1
:1006E0008A1142200A128A11A2002208AD00AD0828
:1006F0000319B12D2D08253A0319A32B2E0A8400C6
:10070000831380080319912B2D08A2002208F00002
:100710002E0A840000080A128A1109210A128A117D
:10072000682B831203132D08A2002E088400831364
:1007300000088400220880000130A2002E088400F6
:1007400022088007682BAB01AC01AA01AC2B2A154B
:100750000130A2002208A007200884000A128A1192
:1007600042200A128A11303A0319A72BB72B20080E
:1007700084000A128A1142200A128A110A168A116A
:1007800061260A128A11031C072C83120313AB0182
:10079000AC010A30F0000030F100831203132C0882
:1007A000F301F3072B08F201F2070A168A118827D2
:1007B0000A128A11710883120313AC01AC07700886
:1007C000AB01AB07200884000A128A1142200A12EA
:1007D0008A11D03EA200FF3003180030A300220887
:1007E000AB070318AC0A2308AC070130A2002208AB
:1007F000A007200884000A128A1142200A128A11D6
:100800000A168A1161260A128A110318C92B0130AF
:1008100083120313A007FF30200784000A128A11F5
:1008200042200A128A11AD00003A0319B12D643A30
:1008300003191E2C0D3A03191E2C682B8312031367
:100840002108840083130008A200023080072208D8
:1008500084000008A600840A0008A700A71F392CFE
:100860000330A2002208AA04A609A709A60A0319B0
:10087000A70AAD01AD0A2D08053A0319602C2D0811
:10088000A2002207013E84000A128A1142200A12A5
:100890008A11A3000A128A1142200A128A11A400A6
:1008A00024082702031D562C23082602031C602C53
:1008B0000130A2002208AD072D08053A031D3F2C88
:1008C0002C082B0403196E2C2A08033903196E2CEB
:1008D000FF30AB070318AC0AFF30AC072D08A200AD
:1008E000A301A21BA3032308803AA4002C08803A8A
:1008F0002402031D7D2C2B08220203188D2C831249
:1009000003132D08A200A301A21BA3032208AB021C
:100910002308031CAC03AC02912C83120313AB011C
:10092000AC012A1DEE2C2A0803390319BB2C2E0A10
:100930008400831380080319AA2C2D30A2002208FA
:10094000F0002E0A840000080A128A1109210A12F6
:100950008A11BB2C2D3083120313A2002E088400B1
:10096000831300088400220880000130A2002E08B2
:10097000840022088007831203132C082B04031918
:100980004A2D2E0A8400831380080319D42C30309A
:10099000A2002208F0002E0A840000080A128A1120
:1009A00009210A128A11E52C303083120313A200A8
:1009B0002E08840083130008840022088000013080
:1009C000A2002E08840022088007FF308312031340
:1009D000AB070318AC0AFF30AC07BD2C2C082B0466
:1009E0000319222D2E0A8400831380080319052D74
:1009F0002030A2002208F0002E0A840000080A120B
:100A00008A1109210A128A11162D2030831203132C
:100A1000A2002E08840083130008840022088000AE
:100A20000130A2002E08840022088007FF308312C4
:100A30000313AB070318AC0AFF30AC072C082B04D8
:100A4000031DF22C2A08033903194A2D2E0A8400AB
:100A5000831380080319392D2D30A2002208F000DD
:100A60002E0A840000080A128A1109210A128A112A
:100A70004A2D2D3083120313A2002E088400831305
:100A800000088400220880000130A2002E088400A3
:100A900022088007831203132D08A2002208A50054
:100AA000FF3083120313A2002208A5072508FF3A8E
:100AB0000319682B0A30F8000030F9002508A2005D
:100AC0002207013E84000A128A1142200A128A116A
:100AD000F0000A128A1142200A128A11F100270836
:100AE000F301F3072608F201F2070A128A15C5205E
:100AF0000A128A117108FB01FB077008FA01FA0754
:100B00000A128A155B200A128A117808303E831275
:100B10000313A3002308AD002E0A8400831380086A
:100B200003199F2D2D08A2002208F0002E0A840030
:100B300000080A128A1109210A128A11502D831203
:100B400003132D08A2002E088400831300088400DC
:100B5000220880000130A2002E08840022088007AD
:100B6000502D83120313A001A10108008312031367
:100B70003A08F0003B08F1003C08F2003708F300A7
:100B80003808F4003908F5000A128A158C210A1277
:100B90008A11031CD82D80300A168A11D326003002
:100BA00083120313B7000030B8000030B90008000A
:100BB000831203133A08F0003B08F1003C08F200EE
:100BC0003708F3003808F4003908F5000A128A15CE
:100BD0008C210A128A1103185E2E831203133D081A
:100BE000F0003E08F1003F08F2003708F300380833
:100BF000F4003908F5000A128A158C210A128A11AC
:100C0000031C5E2E82300A168A11D3260A128A111C
:100C1000831203133D08F8003E08F9003F08FA006C
:100C20003A08F0003B08F1003C08F2000A168A116D
:100C30003C260A128A117008FB007108FC00720839
:100C4000FD000A128A15AC240A128A117808831250
:100C50000313A7007908A8007A08A9003708F8004C
:100C60003808F9003908FA003A08F0003B08F100AA
:100C70003C08F2000A168A113C260A128A117008F2
:100C8000FB007108FC007208FD000A128A15AC24F2
:100C90000A128A11780883120313AA007908AB009C
:100CA0007A08AC000A128A113D2783120313270821
:100CB000B7002808B8002908B900080083120313F8
:100CC0003D08F0003E08F1003F08F2003708F3004D
:100CD0003808F4003908F5000A128A158C210A1226
:100CE0008A110318952E831203134008F00041085F
:100CF000F1004208F2003708F3003808F400390820
:100D0000F5000A128A158C210A128A11031C952EED
:100D100084300A168A11D326003083120313B700D9
:100D20008030B8003F30B900080083120313400838
:100D3000F0004108F1004208F2003708F3003808DB
:100D4000F4003908F5000A128A158C210A128A115A
:100D500003181B2F831203134308F0004408F1000B
:100D60004508F2003708F3003808F4003908F500A8
:100D70000A128A158C210A128A11031C1B2F863035
:100D80000A168A11D3260A128A1183120313430802
:100D9000F8004408F9004508FA004008F00041084E
:100DA000F1004208F2000A168A113C260A128A1142
:100DB0007008FB007108FC007208FD000A128A1519
:100DC000AC240A128A11780883120313A700790849
:100DD000A8007A08A9004308F8004408F90045086B
:100DE000FA003708F0003808F1003908F2000A1656
:100DF0008A113C260A128A117008FB007108FC0057
:100E00007208FD000A128A15AC240A128A117808A9
:100E100083120313AA007908AB007A08AC000A1207
:100E20008A113D27831203132708B7002808B8004A
:100E30002908B9000800831203134308F00044088E
:100E4000F1004508F2003708F3003808F4003908CB
:100E5000F5000A128A158C210A128A11031808005B
:100E600088300A168A11D326003083120313B70084
:100E70000030B8000030B9000800831203132A08BC
:100E8000AD002B08AE002C08AF0003102E0D2F0D67
:100E9000B0003008B500B508031D552F0030A7007D
:100EA0000030A8000030A90008002708AD0028087D
:100EB000AE002908AF0003102E0D2F0DB000300832
:100EC000B600B608031D6B2F0030A7000030A80045
:100ED0000030A90008000030B2000030B30000303C
:100EE000B40089303607AD002D08B5022A08AD00E0
:100EF0002B08AE002C08AF0010300310AF0CAE0C66
:100F0000AD0CFF3E031D7D2F2D08B0003008B6004C
:100F10002708AD002808AE002908AF0010300310E4
:100F2000AF0CAE0CAD0CFF3E031D8F2F2D08B00093
:100F30003008B6068030AD002D08B605AB17FF307F
:100F4000AA05FF30AB050030AC05A817FF30A70598
:100F5000FF30A8050030A9051830AD002D08B100FC
:100F600001300310B20DB30DB40DFF3E031DB12FC0
:100F700029082C02031DC22F28082B02031DC22F93
:100F800027082A02031CCF2F2708AA022808031CBF
:100F9000280FAB022908031C290AAC0232140130C5
:100FA0000310AA0DAB0DAC0DFF3E031DD02F013079
:100FB000B102031DB02F3208F0003308F1003408ED
:100FC000F2003508AD002D08F3003608AE002E08FB
:100FD000F4000A128A15E921700883120313A7008E
:100FE0007108A8007208A900080083160313811273
:100FF000011281110115811401140B118B160800C7
:101002000800A0340C34463483160313AB01AC0140
:10101200271C11282908AB070318AC0A2A08AC07B9
:1010220001300310A90DAA0DFF3E031D1228013045
:101032000310A80CA70CFF3E031D1928280827043B
:10104200031D09282C08A801A8072B08A701A70738
:10105200080083160313290883120313FF00831663
:10106200031328088400831203130A128A113820FA
:101072000A128A1500380319080083160313290877
:1010820083120313FF0083160313280884008312BC
:1010920003130A128A1138200A128A150A168A11B3
:1010A20054260A128A15013083160313A80703185F
:1010B200A90A2A287908780403198828FD01FD0A5B
:1010C200F91B6F2801300310F80DF90DFF3E031DC7
:1010D20064280130FC007C08FD07612879087B0246
:1010E200031D752878087A02031C7D287808FA0205
:1010F2007908031CFB03FB0201300310F90CF80C06
:10110200FF3E031D7E280130FD02031D6F287B0870
:10111200F901F9077A08F801F807080083160313A2
:1011220030082F040319BE28B401B40AB01BA52845
:1011320001300310AF0DB00DFF3E031D9A280130A0
:10114200B3003308B407972830083202031DAB28D6
:101152002F083102031CB3282F08B1023008031CE8
:10116200B203B20201300310B00CAF0CFF3E031DFC
:10117200B4280130B402031DA5283208B001B0071B
:101182003108AF01AF070800F501F60171087004DC
:101192000319FC28F701F70AF11BDB2801300310C1
:1011A200F00DF10DFF3E031DD0280130F40074084C
:1011B200F707CD2801300310F50DF60DFF3E031D94
:1011C200DC2871087302031DE82870087202031CF0
:1011D200F1287008F2027108031CF303F30275147C
:1011E20001300310F10CF00CFF3E031DF228013018
:1011F200F702031DDB287608F101F1077508F001FB
:10120200F007080083160313AC01AD012808270478
:1012120003193C29AE01AE0AA81B1B290130031099
:10122200A70DA80DFF3E031D10290130AB002B08AE
:10123200AE070D2901300310AC0DAD0DFF3E031DAD
:101242001C2928082A02031D282927082902031C11
:1012520031292708A9022808031CAA03AA022C1470
:1012620001300310A80CA70CFF3E031D32290130E8
:10127200AE02031D1B292D08A801A8072C08A701EF
:10128200A7070800831603133608BA003708BB0005
:101292003808BC003908BD0004300310BA0DBB0D7C
:1012A200BC0DBD0DFF3E031D4E293D08AA003C08A2
:1012B200A9003B08A8003A08A7000130AE00193087
:1012C200AD004030AC000030AB000A128A154A2350
:1012D200831603132708FF3E9900981318139816D4
:1012E200181218159814181083120313981718134C
:1012F20098121816981118119810181083160313C3
:101302000C12831203130C12831603138C1683120E
:1013120003138C120800F21FB3290030F6000030CC
:10132200F7008030F8007009F9007109FA007209BB
:10133200FB00F90A0319FA0A0319FB0A7908F607EE
:101342007A0803187A0FA629A729F7077B0803183A
:101352007B0FAC29AD29F8077608F0007708F10079
:101362007808F200F51FDA290030F6000030F700A5
:101372008030F8007309F9007409FA007509FB005E
:10138200F90A0319FA0A0319FB0A7908F6077A0817
:1013920003187A0FCD29CE29F7077B0803187B0F94
:1013A200D329D429F8077608F3007708F4007808DF
:1013B200F5008030F2068030F50675087202031DD2
:1013C200080074087102031D080073087002080007
:1013D20073080319F129720871047004031D042AA9
:1013E2000030F0000030F1000030F200080001305F
:1013F200F5007508F30701300310F20CF10CF00C44
:10140200FF3E031DFD29FE30720503191F2AF8292C
:101412000130F5007508F3070130F00700300318BA
:101422000130F107003003180130F20701300310D8
:10143200F20CF10CF00CFF3E031D182AFF3072056E
:1014420003192E2A092A0130F30201300310F00D8C
:10145200F10DF20DFF3E031D272AF11F242A7318F6
:10146200382AFF30F0057F30F105FF30F205031016
:10147200F30C7308F500F601F70110300310F50DB7
:10148200F60DF70DFF3E031D3F2A7508F00476089E
:10149200F1047708F204740803190800F21708002F
:1014A200831603139F111F159F101F105A30AA0095
:1014B200C330A900A90B5B2AAA0B5B2A30300A169B
:1014C2008A11A5260A128A15183083160313AA0058
:1014D200EF30A900A90B6B2AAA0B6B2A30300A162F
:1014E2008A11A5260A128A15993083160313A900B8
:1014F200A90B792A30300A168A11A5260A128A15F2
:101502003D3083160313A900A90B852A38300A1629
:101512008A11A5260A128A153D3083160313A900E3
:10152200A90B912A01300A168A11A5260A128A15D8
:101532000C3083160313AA00F730A900A90B9F2AC7
:10154200AA0B9F2A0C300A168A11A5260A128A159E
:101552003D3083160313A900A90BAD2A06300A16E3
:101562008A11A5260A128A153D3083160313A90093
:10157200A90BB92A0800831203135608DA00570888
:10158200DB005808DC0003105B0D5C0DDD005D081C
:10159200E300E308031DD62A0030D9000030D8004A
:1015A2000030D7000030D60008005608DA0057088D
:1015B200DB005808DC0017300310DC0CDB0CDA0C03
:1015C200FF3E031DDD2A5A08DD005D08DE00D71745
:1015D200FF30D605FF30D7050030D8055608DF00AA
:1015E2005708E0005808E100E2018E30E302E31FF1
:1015F200182B6308803A8F3E0318082B0030D9005D
:101602000030D8000030D7000030D600080001308A
:101612000310E20CE10CE00CDF0CFF3E031D092B72
:101622000130DA005A08E3070319332B082B18306C
:101632006302031C302B0030D9000030D800003088
:10164200D7000030D60008000130DA000310DF0DA9
:10165200E00DE10DE20DDA0B272B0130E302E30886
:10166200031D252B5E080319412BDF09E009E1095F
:10167200E209DF0A0319E00A0319E10A0319E20A7F
:101682006208D9006108D8006008D7005F08D60058
:10169200080083160313B101AA1F5C2BA709A8092E
:1016A200A909AA09A70A0319A80A0319A90A031969
:1016B200AA0AB101B10AAE1F6D2BAB09AC09AD0983
:1016C200AE09AB0A0319AC0A0319AD0A0319AE0A33
:1016D2000130AF002F08B1060030B5000030B40071
:1016E2000030B3000030B2002A082904280427047D
:1016F2000319C22BB001B00AAA1B8D2B0130AF0017
:101702000310A70DA80DA90DAA0DAF0B812B013057
:10171200AF002F08B0077D2B0130AF000310B20DD0
:10172200B30DB40DB50DAF0B8F2B2A082E02031D7E
:10173200A42B29082D02031DA42B28082C02031D0B
:10174200A42B27082B02031CB52B2708AB02280861
:10175200031C280FAC022908031C290FAD022A081A
:10176200031C2A0FAE02321401300310AA0CA90C7A
:10177200A80CA70CFF3E031DB62B0130B002031DBF
:101782008D2B31080319D02BB209B309B409B5095D
:10179200B20A0319B30A0319B40A0319B50A3508C0
:1017A200AA003408A9003308A8003208A7000800DC
:1017B200831203134608CC004708CD004808CE0028
:1017C20003104D0D4E0DCF004F08D000D008031D61
:1017D200F12B0030C6000030C7000030C8000800FE
:1017E2004908CC004A08CD004B08CE0003104D0D2D
:1017F2004E0DCF004F08D500D508031D072C003031
:10180200C6000030C7000030C800080055087B3E03
:10181200CC004C08D0074608CC004708CD00480849
:10182200CE0010300310CE0CCD0CCC0CFF3E031DAD
:10183200132C4C08CF004F08D5004908CC004A08A9
:10184200CD004B08CE0010300310CE0CCD0CCC0CCA
:10185200FF3E031D252C4C08CF004F08D5068030D3
:10186200CC004C08D505C717CA17FF30C905FF3091
:10187200CA050030CB050030D1000030D200003064
:10188200D3000730CC004C08D400461C562C490823
:10189200D1074A08031103184A0A031DD2074B084D
:1018A200031103184B0A031DD30701300310C80CA0
:1018B200C70CC60CFF3E031D572C01300310C90D87
:1018C200CA0DCB0DFF3E031D5F2C0130D402031D58
:1018D200462C0930CC004C08D400461C7E2C49080A
:1018E200D1074A08031103184A0A031DD2074B08FD
:1018F200031103184B0A031DD30701300310C80C50
:10190200C70CC60CFF3E031D7F2C01300310D30C05
:10191200D20CD10CFF3E031D872C0130D402031DD3
:101922006E2C5108F0005208F1005308F2005008E2
:10193200CC004C08F3005508CD004D08F4000A1203
:101942008A15E921700883120313C6007108C700C3
:101952007208C8000800780883120313A0007908EF
:10196200A1007A08A2000310210D220DA300230872
:10197200A6007B08A0007C08A1007D08A20003103D
:10198200210D220DA3002308A50026080319D52C3A
:10199200250826020318DC2C2603FF3A2507A0009F
:1019A20019302002031CDC2C7B08F8007C08F900AB
:1019B2007D08FA00080025080319080026082502F8
:1019C2000318EB2C2503FF3A2607A000193020024A
:1019D200031808000630A0002008A400FA1BA41770
:1019E200FD1B2417F917FF30F805FF30F905003009
:1019F200FA05FC17FF30FB05FF30FC050030FD0542
:101A02002508260203182B2D01300310FB0DFC0DB7
:101A1200FD0DFF3E031D062D0130A50225082606F9
:101A22000319262D0130A402240807390319262D93
:101A3200052D01300310FA0CF90CF80CFF3E031DC2
:101A42001B2D0130A0002008A60726082506031931
:101A5200542D1A2D260825020318542D0130031087
:101A6200F80DF90DFA0DFF3E031D302D0130A602CF
:101A7200250826060319502D0130A402240807392F
:101A82000319502D2F2D01300310FD0CFC0CFB0C03
:101A9200FF3E031D452D0130A0002008A5072608A2
:101AA2002506031D442DA41F662DFF30F806FF30C6
:101AB200F906FF30FA060130F8070030031801304A
:101AC200F907003003180130FA07241F782DFF3080
:101AD200FB06FF30FC06FF30FD060130FB0700303D
:101AE20003180130FC07003003180130FD07A40180
:101AF2007808FB07790803110318790A031DFC070C
:101B02007A08031103187A0A031DFD07FD1F9B2D96
:101B1200FF30FB06FF30FC06FF30FD060130FB07FD
:101B2200003003180130FC07003003180130FD07B4
:101B3200A401A40A7B08F0007C08F1007D08F200F1
:101B42002608A0002008F3002408A1002108F400C0
:101B52000A128A15E9217008F8007108F900720862
:101B6200FA00080001308316031385000130831246
:101B72000313850083160313860183120313860160
:101B82008130831603138700C0308312031387004A
:101B92008316031388018312031388018316031328
:101BA2008901831203138901033090008E018F0192
:101BB200003083160313B9000130B800C230B700F9
:101BC2000030B6000A128A1543210A128A150A1237
:101BD2008A11F5270A128A150A168A117F260A1215
:101BE2008A150A168A11AB270A128A150A128A1551
:101BF20051220A128A150B178B17333083160313DF
:101C0200A8008030A9000A128A152A200A128A1511
:101C1200503083160313A8008030A9000A128A15D7
:101C22002A200A128A150A128A1551220A128A15C4
:101C320083160313A70100300A168A1126270A12F7
:101C42008A15643083160313A9008030AA000A168D
:101C52008A11CF270A128A15003083160313A700B0
:101C62000030A8000A168A1146270A128A15FF3088
:101C720083160313A7000330A8000A168A116727E8
:101C82000A128A15EE300A168A1144260A128A1599
:101C92001830831603179200613091006E30900065
:101CA200900B512E910B512E920B512E00007B3036
:101CB200831603179000100883160313C4005708F5
:101CC200C601C6075608C501C507DA300A168A11C9
:101CD20007270A128A15DA3083160313A800003088
:101CE200A9000A128A152A200A128A154D30831673
:101CF2000313A8008030A9000A128A152A200A12AA
:101D02008A150A128A11D1200A128A158316031320
:101D1200A70100300A168A1126270A128A15753081
:101D220083160313A9008030AA000A168A11CF274E
:101D32000A128A15063083160317900010088316BC
:101D42000313A70000300A168A1126270A128A15E1
:101D5200DA3083160313A9000030AA000A168A118A
:101D6200CF270A128A150530831603179200AD3069
:101D72009100E0309000900BBC2E910BBC2E920B88
:101D8200BC2E582E8C1A8C120C1B0C130B1DF12F0F
:101D9200EE300A128A11FA200A128A1501308316CD
:101DA20003135302F330031952020318E22E0130D7
:101DB200D2070318D30A0030D3078312031306177E
:101DC200F02F83160313D201D301831203130F08DA
:101DD20083160313D501D507831203130E08831646
:101DE2000313D401D4075508F901F9075408F8017F
:101DF200F8070A168A1191260A128A1578088312A0
:101E02000313AA007908AB007A08AC000030A700DF
:101E1200E030A8004030A9000A128A113D270A12B8
:101E22008A15831203132708C9002808CA00290843
:101E3200CB000030C600F030C7004230C8000A12A2
:101E42008A15D9230A128A15831203134608D6006B
:101E52004708D7004808D8000A128A15BC220A127D
:101E62008A1583120313570883160313D701D70762
:101E720083120313560883160313D601D60783125F
:101E820003138E018F01831603136408FB00650898
:101E9200FC006608FD000030F8004830F9004430CC
:101EA200FA000A128A15AC240A128A1578088316D7
:101EB2000313A1007908A2007A08A3006408FB00BA
:101EC2006508FC006608FD000030F8009630F90055
:101ED200C430FA000A128A15AC240A128A1578084C
:101EE20083160313A4007908A5007A08A600210826
:101EF20083120313C30083160313220883120313EE
:101F0200C40083160313230883120313C500831628
:101F12000313240883120313C00083160313250836
:101F220083120313C10083160313260883120313BB
:101F3200C2000030BD000030BE000030BF000030E3
:101F4200BA002030BB00C130BC008316031357080F
:101F5200F901F9075608F801F8070A168A119126BD
:101F62000A128A15780883120313B7007908B80099
:101F72007A08B9000A128A11B6250A128A15831242
:101F820003133708C9003808CA003908CB00C0302B
:101F9200C6007F30C7004430C8000A128A15D92310
:101FA2000A128A15831203134608D6004708D7007F
:101FB2004808D8000A128A15BC220A128A1583120E
:101FC20003135708E501E5075608E401E4070A167A
:101FD2008A11EC260A128A158312031306130B11B7
:101FE2000C180C108C198C116B08FF006A088A00FF
:0E1FF20069088400680E8300FE0E7E0E090052
:102C7800720871047004031908008030F206080015
:102C880083160313A7002708831203138100080083
:102C980064008001840A04060319003404064D2EDA
:102CA80083160313A70083120C1E572E83160313D3
:102CB80027088312031399000800F100F0013A3045
:102CC800710203186D2E30307102031C6D2EF00155
:102CD800F00A700C080083160313A800A7013A3005
:102CE800280203187D2E30302802031C7D2EA701F0
:102CF800A70A270C0800831603139F179F151F1593
:102D08009F141F10831203139F171F138316031397
:102D18000C13831203130C1308007808F0007908C9
:102D2800F100F2018E30FB007B08F300F4010A1277
:102D38008A15E9217008F8007108F9007208FA008C
:102D4800080083160313A8008312031309108316BF
:102D58000313280883120313880089143D3083164F
:102D68000313A700A70BB62E8312031389100800BC
:102D780083160313A800831203130914831603137D
:102D8800280883120313880089143D30831603131F
:102D9800A700A70BCD2E83120313891008008312F6
:102DA8000313B100B3010130AF002F08B400703035
:102DB800AF002F08B2003108AF002F08A000323052
:102DC800B0003008A10033300A128A1165230800C8
:102DD800831203136508E7006408E600670DE70C33
:102DE800E60C670DE70CE60C66089B006408E60035
:102DF80003300310E60DFF3E031DFD2E0310660D84
:102E08000C389D00080083160313C9004908C70041
:102E18004708CB00CC01C530C7004708CA004408A2
:102E2800C7004708B500CA30C8004808B600CB300C
:102E38000A128A111221831603134B088400831384
:102E48008001080083160313A900831203130910D5
:102E580083160313A908031D342F2708803E382F33
:102E6800831603132708C03E8312031388008914AE
:102E78003D3083160313A800A80B402F83120313B9
:102E880089100800831603132808AA002708A90038
:102E98002A0DAA0CA90C2A0DAA0CA90C2908831220
:102EA80003139500831603132708A90003300310A2
:102EB800A90DFF3E031D5B2F0310290D0C3883124B
:102EC800031397000800831603132808AA0027088D
:102ED800A9002A0DAA0CA90C2A0DAA0CA90C2908CC
:102EE800831203139B00831603132708A9000330DA
:102EF8000310A90DFF3E031D7C2F0310290D0C386C
:102F0800831203139D000800F401F501701C922F31
:102F18007208F4070318F50A7308F507013003105F
:102F2800F20DF30DFF3E031D932F01300310F10C3A
:102F3800F00CFF3E031D9A2F71087004031D8A2FA1
:102F48007508F101F1077408F001F0070800831211
:102F580003139214121012139212121292111215D4
:102F6800FF30831603139200831203139715171566
:102F780097141714831603130C15831203130C11DB
:102F88009D151D159D141D14831603130D1483120E
:102F980003130D100800831603132A088312031362
:102FA800FF008316031329088400831203130A12EF
:102FB8008A1138200A168A11003803190800831666
:102FC80003132A0883120313FF0083160313290827
:102FD8008400831203130A128A1138200A168A11F0
:102FE8000A168A11BC260A168A11013083160313A1
:082FF800A9070318AA0ACF2F54
:02400E0032FF7F
:00000001FF
