:100000000A128A1112280800FE00030E831203133D
:10001000E8000408E9000A08EA007F08EB000A1279
:100020008A15C32E0A128A111528EC01ED01EE0182
:10003000EF018313CD308400E4300A168A116F2655
:100040000A128A11831603130A128A11FD200A125A
:100050008A11E4000A128A11FE200A128A11E500B0
:100060000A128A11FF20E60083010A128A15B72CB2
:1000700083160313B101AA1F4A28A709A809A909D1
:10008000AA09A70A0319A80A0319A90A0319AA0A9F
:10009000B101B10AAE1F5B28AB09AC09AD09AE09CD
:1000A000AB0A0319AC0A0319AD0A0319AE0A0130F1
:1000B000AF002F08B1060030B5000030B4000030AA
:1000C000B3000030B2002A082904280427040319C9
:1000D000B028B001B00AAA1B7B280130AF00031082
:1000E000A70DA80DA90DAA0DAF0B6F280130AF0009
:1000F0002F08B0076B280130AF000310B20DB30D0D
:10010000B40DB50DAF0B7D282A082E02031D9228D1
:1001100029082D02031D922828082C02031D92286D
:1001200027082B02031CA3282708AB022808031C5E
:10013000280FAC022908031C290FAD022A08031C52
:100140002A0FAE02321401300310AA0CA90CA80C1D
:10015000A70CFF3E031DA4280130B002031D7B281D
:1001600031080319BE28B209B309B409B509B20AA6
:100170000319B30A0319B40A0319B50A3508AA000A
:100180003408A9003308A8003208A7000800831625
:10019000031330082F040319F628B401B40AB01B66
:1001A000DD2801300310AF0DB00DFF3E031DD22836
:1001B0000130B3003308B407CF2830083202031DE2
:1001C000E3282F083102031CEB282F08B102300866
:1001D000031CB203B20201300310B00CAF0CFF3E9F
:1001E000031DEC280130B402031DDD283208B001E4
:1001F000B0073108AF01AF07080000347A34443447
:10020000FF0001308A007F08820705290A128A113F
:100210000328FF0001308A007F0882070E290A1296
:100220008A15882883160313C3000130831603132D
:10023000B507FF30350784000A128A150A200A1212
:100240008A11B7003708C200C2080319602B4208A0
:10025000253A03195029430A84008313800803199F
:100260003E294208B7003708A700430A8400000867
:100270000A128A1100210A128A1115298316031302
:100280004208B7004308840083130008840037083D
:1002900080000130B7004308840037088007152923
:1002A000C001C101BF0159293F150130B70037080E
:1002B000B507350884000A128A150A200A128A1125
:1002C000303A031954296429350884000A128A1522
:1002D0000A200A128A110A168A1192260A128A1113
:1002E000031CB42983160313C001C1010A3083160D
:1002F0000313A7000030A8004108AA01AA0740087C
:10030000A901A9070A168A11DB270A128A11831686
:1003100003132808C101C1072708C001C007350819
:1003200084000A128A150A200A128A11D03EB700E8
:10033000FF3003180030B8003708C0070318C10A9F
:100340003808C1070130B7003708B5073508840001
:100350000A128A150A200A128A110A168A1192268E
:100360000A128A1103187629013083160313B50780
:10037000FF30350784000A128A150A200A128A11F2
:10038000C200003A0319602B643A0319CB290D3AD5
:100390000319CB2915298316031336088400831308
:1003A0000008B70002308007370884000008BB004F
:1003B000840A0008BC00BC1FE6290330B7003708D8
:1003C000BF04BB09BC09BB0A0319BC0AC201C20AAB
:1003D0004208053A03190D2A4208B7003707013EC3
:1003E00084000A128A150A200A128A11B8000A1219
:1003F0008A150A200A128A11B90039083C02031D25
:10040000032A38083B02031C0D2A0130B7003708C5
:10041000C2074208053A031DEC29410840040319AC
:100420001B2A3F08033903191B2AFF30C007031892
:10043000C10AFF30C1074208B700B801B71BB803B3
:100440003808803AB9004108803A3902031D2A2A47
:100450004008370203183A2A831603134208B700EC
:10046000B801B71BB8033708C0023808031CC10322
:10047000C1023E2A83160313C001C1013F1D9B2AFE
:100480003F0803390319682A430A8400831380084C
:100490000319572A2D30B7003708A700430A8400F4
:1004A00000080A128A1100210A128A11682A2D30C6
:1004B00083160313B70043088400831300088400E5
:1004C000370880000130B7004308840037088007F0
:1004D00083160313410840040319F72A430A8400D2
:1004E000831380080319812A3030B7003708A7002A
:1004F000430A840000080A128A1100210A128A1194
:10050000922A303083160313B70043088400831304
:1005100000088400370880000130B70043088400D9
:1005200037088007FF3083160313C0070318C10A7A
:10053000FF30C1076A2A410840040319CF2A430A41
:100540008400831380080319B22A2030B7003708CB
:10055000A700430A840000080A128A1100210A1227
:100560008A11C32A203083160313B700430884007E
:10057000831300088400370880000130B700430867
:10058000840037088007FF3083160313C007031861
:10059000C10AFF30C10741084004031D9F2A3F08DC
:1005A00003390319F72A430A8400831380080319C7
:1005B000E62A2D30B7003708A700430A8400000858
:1005C0000A128A1100210A128A11F72A2D30831685
:1005D0000313B7004308840083130008840037081E
:1005E00080000130B7004308840037088007831675
:1005F00003134208B7003708BA00FF30831603130D
:10060000B7003708BA073A08FF3A031915290A3024
:10061000AF000030B0003A08B7003707013E840051
:100620000A128A150A200A128A11A7000A128A15CC
:100630000A200A128A11A8003C08AA01AA073B084E
:10064000A901A9070A128A159D210A128A11831687
:1006500003132808B201B2072708B101B1070A1233
:100660008A11C7200A128A11831603132F08303EFD
:10067000B8003808C200430A8400831380080319B5
:100680004E2B4208B7003708A700430A8400000831
:100690000A128A1100210A128A11FD2A83160313F5
:1006A0004208B70043088400831300088400370819
:1006B00080000130B7004308840037088007FD2A16
:1006C00083160313B501B601080083120313AE00AD
:1006D000013083120313A007FF30200784000A12A1
:1006E0008A150A200A128A11A2002208AD00AD085C
:1006F0000319B12D2D08253A0319A32B2E0A8400C6
:10070000831380080319912B2D08A2002208F00002
:100710002E0A840000080A128A1109210A128A117D
:10072000682B831203132D08A2002E088400831364
:1007300000088400220880000130A2002E088400F6
:1007400022088007682BAB01AC01AA01AC2B2A154B
:100750000130A2002208A007200884000A128A158E
:100760000A200A128A11303A0319A72BB72B200846
:1007700084000A128A150A200A128A110A168A119E
:1007800084260A128A11031C072C83120313AB015F
:10079000AC010A30F0000030F100831203132C0882
:1007A000F301F3072B08F201F2070A168A119427C6
:1007B0000A128A11710883120313AC01AC07700886
:1007C000AB01AB07200884000A128A150A200A121E
:1007D0008A11D03EA200FF3003180030A300220887
:1007E000AB070318AC0A2308AC070130A2002208AB
:1007F000A007200884000A128A150A200A128A110A
:100800000A168A1184260A128A110318C92B01308C
:1008100083120313A007FF30200784000A128A15F1
:100820000A200A128A11AD00003A0319B12D643A68
:1008300003191E2C0D3A03191E2C682B8312031367
:100840002108840083130008A200023080072208D8
:1008500084000008A600840A0008A700A71F392CFE
:100860000330A2002208AA04A609A709A60A0319B0
:10087000A70AAD01AD0A2D08053A0319602C2D0811
:10088000A2002207013E84000A128A150A200A12D9
:100890008A11A3000A128A150A200A128A11A400DA
:1008A00024082702031D562C23082602031C602C53
:1008B0000130A2002208AD072D08053A031D3F2C88
:1008C0002C082B0403196E2C2A08033903196E2CEB
:1008D000FF30AB070318AC0AFF30AC072D08A200AD
:1008E000A301A21BA3032308803AA4002C08803A8A
:1008F0002402031D7D2C2B08220203188D2C831249
:1009000003132D08A200A301A21BA3032208AB021C
:100910002308031CAC03AC02912C83120313AB011C
:10092000AC012A1DEE2C2A0803390319BB2C2E0A10
:100930008400831380080319AA2C2D30A2002208FA
:10094000F0002E0A840000080A128A1109210A12F6
:100950008A11BB2C2D3083120313A2002E088400B1
:10096000831300088400220880000130A2002E08B2
:10097000840022088007831203132C082B04031918
:100980004A2D2E0A8400831380080319D42C30309A
:10099000A2002208F0002E0A840000080A128A1120
:1009A00009210A128A11E52C303083120313A200A8
:1009B0002E08840083130008840022088000013080
:1009C000A2002E08840022088007FF308312031340
:1009D000AB070318AC0AFF30AC07BD2C2C082B0466
:1009E0000319222D2E0A8400831380080319052D74
:1009F0002030A2002208F0002E0A840000080A120B
:100A00008A1109210A128A11162D2030831203132C
:100A1000A2002E08840083130008840022088000AE
:100A20000130A2002E08840022088007FF308312C4
:100A30000313AB070318AC0AFF30AC072C082B04D8
:100A4000031DF22C2A08033903194A2D2E0A8400AB
:100A5000831380080319392D2D30A2002208F000DD
:100A60002E0A840000080A128A1109210A128A112A
:100A70004A2D2D3083120313A2002E088400831305
:100A800000088400220880000130A2002E088400A3
:100A900022088007831203132D08A2002208A50054
:100AA000FF3083120313A2002208A5072508FF3A8E
:100AB0000319682B0A30F8000030F9002508A2005D
:100AC0002207013E84000A128A150A200A128A119E
:100AD000F0000A128A150A200A128A11F10027086A
:100AE000F301F3072608F201F2070A128A155F21C3
:100AF0000A128A117108FB01FB077008FA01FA0754
:100B00000A128A152B210A128A117808303E8312A4
:100B10000313A3002308AD002E0A8400831380086A
:100B200003199F2D2D08A2002208F0002E0A840030
:100B300000080A128A1109210A128A11502D831203
:100B400003132D08A2002E088400831300088400DC
:100B5000220880000130A2002E08840022088007AD
:100B6000502D83120313A001A10108008312031367
:100B70003A08F0003B08F1003C08F2003708F300A7
:100B80003808F4003908F5000A128A1526220A12DC
:100B90008A11031CD82D6F300A168A11DF26003007
:100BA00083120313B7000030B8000030B90008000A
:100BB000831203133A08F0003B08F1003C08F200EE
:100BC0003708F3003808F4003908F5000A128A15CE
:100BD00026220A128A1103185E2E831203133D087F
:100BE000F0003E08F1003F08F2003708F300380833
:100BF000F4003908F5000A128A1526220A128A1111
:100C0000031C5E2E71300A168A11DF260A128A1121
:100C1000831203133D08F8003E08F9003F08FA006C
:100C20003A08F0003B08F1003C08F2000A168A116D
:100C30005F260A128A117008FB007108FC00720816
:100C4000FD000A128A15BC250A128A11780883123F
:100C50000313A7007908A8007A08A9003708F8004C
:100C60003808F9003908FA003A08F0003B08F100AA
:100C70003C08F2000A168A115F260A128A117008CF
:100C8000FB007108FC007208FD000A128A15BC25E1
:100C90000A128A11780883120313AA007908AB009C
:100CA0007A08AC000A128A113D2783120313270821
:100CB000B7002808B8002908B900080083120313F8
:100CC0003D08F0003E08F1003F08F2003708F3004D
:100CD0003808F4003908F5000A128A1526220A128B
:100CE0008A110318952E831203134008F00041085F
:100CF000F1004208F2003708F3003808F400390820
:100D0000F5000A128A1526220A128A11031C952E52
:100D100073300A168A11DF26003083120313B700DE
:100D20008030B8003F30B900080083120313400838
:100D3000F0004108F1004208F2003708F3003808DB
:100D4000F4003908F5000A128A1526220A128A11BF
:100D500003181B2F831203134308F0004408F1000B
:100D60004508F2003708F3003808F4003908F500A8
:100D70000A128A1526220A128A11031C1B2F7530AB
:100D80000A168A11DF260A128A11831203134308F6
:100D9000F8004408F9004508FA004008F00041084E
:100DA000F1004208F2000A168A115F260A128A111F
:100DB0007008FB007108FC007208FD000A128A1519
:100DC000BC250A128A11780883120313A700790838
:100DD000A8007A08A9004308F8004408F90045086B
:100DE000FA003708F0003808F1003908F2000A1656
:100DF0008A115F260A128A117008FB007108FC0034
:100E00007208FD000A128A15BC250A128A11780898
:100E100083120313AA007908AB007A08AC000A1207
:100E20008A113D27831203132708B7002808B8004A
:100E30002908B9000800831203134308F00044088E
:100E4000F1004508F2003708F3003808F4003908CB
:100E5000F5000A128A1526220A128A1103180800C0
:100E600077300A168A11DF26003083120313B70089
:100E70000030B8000030B9000800831203132A08BC
:100E8000AD002B08AE002C08AF0003102E0D2F0D67
:100E9000B0003008B500B508031D552F0030A7007D
:100EA0000030A8000030A90008002708AD0028087D
:100EB000AE002908AF0003102E0D2F0DB000300832
:100EC000B600B608031D6B2F0030A7000030A80045
:100ED0000030A90008000030B2000030B30000303C
:100EE000B40089303607AD002D08B5022A08AD00E0
:100EF0002B08AE002C08AF0010300310AF0CAE0C66
:100F0000AD0CFF3E031D7D2F2D08B0003008B6004C
:100F10002708AD002808AE002908AF0010300310E4
:100F2000AF0CAE0CAD0CFF3E031D8F2F2D08B00093
:100F30003008B6068030AD002D08B605AB17FF307F
:100F4000AA05FF30AB050030AC05A817FF30A70598
:100F5000FF30A8050030A9051830AD002D08B100FC
:100F600001300310B20DB30DB40DFF3E031DB12FC0
:100F700029082C02031DC22F28082B02031DC22F93
:100F800027082A02031CCF2F2708AA022808031CBF
:100F9000280FAB022908031C290AAC0232140130C5
:100FA0000310AA0DAB0DAC0DFF3E031DD02F013079
:100FB000B102031DB02F3208F0003308F1003408ED
:100FC000F2003508AD002D08F3003608AE002E08FB
:100FD000F4000A128A158322700883120313A700F3
:100FE0007108A8007208A900080083160313811273
:100FF000011281110115811401140B118B160800C7
:10100000FF1B0A2883137F1883170008840A03191B
:10101000FF0A080008308A000408840A82070034A6
:10102000013400340A34003464340034E8340334C6
:10103000103427340A340D3420342D342D342D341B
:101040002D342D342D342D34203445345334543440
:101050004F34553452344F342034443445342034E2
:10106000503449344C344834413420342D342D34F8
:101070002D342D342D342D342D3420340A340D34B8
:101080002034003449346E34693463346934613453
:101090006C3469347A3461346E3464346F3420349F
:1010A0006F34203450344934433431343634463488
:1010B00038343734373441340A340D34003455343D
:1010C00053344134523454343A342034313431348A
:1010D00035342E3432343034303462347034733436
:1010E0000A340D340034523450344D343A34203400
:1010F0000034253430343434643400343134003432
:101100003234003433340034343400343534003471
:10111000080083160313A80083120313091483160F
:101120000313280883120313880089143D308316A3
:101130000313A700A70B9A28831203138910080032
:1011400001300A168A11C8260A128A150C30831635
:101150000313AA00F730A900A90BAC28AA0BAC28EE
:101160000C300A168A11C8260A128A153D308316D9
:101170000313A900A90BBA2806300A168A11C8263B
:101180000A128A153D3083160313A900A90BC6283D
:101190000800831603132A0883120313FF00831623
:1011A000031329088400831203130A128A150020EE
:1011B0000A128A15003803190800831603132A0837
:1011C00083120313FF00831603132908840083127C
:1011D00003130A128A1500200A128A150A128A15A8
:1011E00089200A128A15013083160313A9070318F0
:1011F000AA0AC92883160313290883120313FF00C0
:101200008316031328088400831203130A128A1515
:1012100000200A128A1500380319080083160313E8
:10122000290883120313FF00831603132808840080
:10123000831203130A128A1500200A128A150A164D
:101240008A1177260A128A15013083160313A8071C
:101250000318A90AFA287908780403195829FD0106
:10126000FD0AF91B3F2901300310F80DF90DFF3E6F
:10127000031D34290130FC007C08FD073129790861
:101280007B02031D452978087A02031C4D29780842
:10129000FA027908031CFB03FB0201300310F90C6E
:1012A000F80CFF3E031D4E290130FD02031D3F29AE
:1012B0007B08F901F9077A08F801F8070800F50139
:1012C000F6017108700403199629F701F70AF11B5A
:1012D000752901300310F00DF10DFF3E031D6A2941
:1012E0000130F4007408F707672901300310F50D89
:1012F000F60DFF3E031D762971087302031D822936
:1013000070087202031C8B297008F2027108031C1A
:10131000F303F302751401300310F10CF00CFF3EDF
:10132000031D8C290130F702031D75297608F10190
:10133000F1077508F001F007080083160313AC01EC
:10134000AD01280827040319D629AE01AE0AA81B4F
:10135000B52901300310A70DA80DFF3E031DAA29D2
:101360000130AB002B08AE07A72901300310AC0DEC
:10137000AD0DFF3E031DB62928082A02031DC22910
:1013800027082902031CCB292708A9022808031CC7
:10139000AA03AA022C1401300310A80CA70CFF3ECC
:1013A000031DCC290130AE02031DB5292D08A8016B
:1013B000A8072C08A701A7070800831603133608FF
:1013C000BA003708BB003808BC003908BD0004303B
:1013D0000310BA0DBB0DBC0DBD0DFF3E031DE8296A
:1013E0003D08AA003C08A9003B08A8003A08A7004D
:1013F0000130AE001930AD004030AC000030AB0021
:101400000A128A113820831603132708FF3E990019
:101410009813181398161812181598141810831288
:10142000031398171813981218169811181198107A
:101430001810831603130C12831203130C12831655
:1014400003138C16831203138C120800F21F4D2A0B
:101450000030F6000030F7008030F8007009F90025
:101460007109FA007209FB00F90A0319FA0A031953
:10147000FB0A7908F6077A0803187A0F402A412AEE
:10148000F7077B0803187B0F462A472AF8077608D8
:10149000F0007708F1007808F200F51F742A003098
:1014A000F6000030F7008030F8007309F900740985
:1014B000FA007509FB00F90A0319FA0A0319FB0A75
:1014C0007908F6077A0803187A0F672A682AF70757
:1014D0007B0803187B0F6D2A6E2AF8077608F30045
:1014E0007708F4007808F5008030F2068030F506C1
:1014F00075087202031D080074087102031D0800BC
:10150000730870020800730803198B2A72087104AB
:101510007004031D9E2A0030F0000030F1000030FE
:10152000F20008000130F5007508F30701300310E0
:10153000F20CF10CF00CFF3E031D972AFE307205F1
:101540000319B92A922A0130F5007508F307013012
:10155000F007003003180130F107003003180130A4
:10156000F20701300310F20CF10CF00CFF3E031DEA
:10157000B22AFF3072050319C82AA32A0130F302E8
:1015800001300310F00DF10DF20DFF3E031DC12AD5
:10159000F11FBE2A7318D22AFF30F0057F30F10503
:1015A000FF30F2050310F30C7308F500F601F701A4
:1015B00010300310F50DF60DF70DFF3E031DD92A6F
:1015C0007508F0047608F1047708F204740803192A
:1015D0000800F2170800831603139F111F159F10B0
:1015E0001F105A30AA00C330A900A90BF52AAA0B74
:1015F000F52A30300A168A11C8260A128A151830C0
:1016000083160313AA00EF30A900A90B052BAA0B20
:10161000052B30300A168A11C8260A128A1599300D
:1016200083160313A900A90B132B30300A168A1155
:10163000C8260A128A153D3083160313A900A90B88
:101640001F2B38300A168A11C8260A128A153D3017
:1016500083160313A900A90B2B2B01300A168A113C
:10166000C8260A128A150C3083160313AA00F73015
:10167000A900A90B392BAA0B392B0C300A168A1199
:10168000C8260A128A153D3083160313A900A90B38
:10169000472B06300A168A11C8260A128A153D30D1
:1016A00083160313A900A90B532B080083120313FD
:1016B0005608DA005708DB005808DC0003105B0D01
:1016C0005C0DDD005D08E300E308031D702B0030B6
:1016D000D9000030D8000030D7000030D600080014
:1016E0005608DA005708DB005808DC0017300310F2
:1016F000DC0CDB0CDA0CFF3E031D772B5A08DD00F7
:101700005D08DE00D717FF30D605FF30D705003063
:10171000D8055608DF005708E0005808E100E2014C
:101720008E30E302E31FB22B6308803A8F3E03182A
:10173000A22B0030D9000030D8000030D700003094
:10174000D600080001300310E20CE10CE00CDF0CC5
:10175000FF3E031DA32B0130DA005A08E3070319EB
:10176000CD2BA22B18306302031CCA2B0030D900EA
:101770000030D8000030D7000030D600080001301B
:10178000DA000310DF0DE00DE10DE20DDA0BC12BE5
:101790000130E302E308031DBF2B5E080319DB2BB6
:1017A000DF09E009E109E209DF0A0319E00A031988
:1017B000E10A0319E20A6208D9006108D80060084A
:1017C000D7005F08D6000800831203134608CC0038
:1017D0004708CD004808CE0003104D0D4E0DCF0038
:1017E0004F08D000D008031DFC2B0030C60000308D
:1017F000C7000030C80008004908CC004A08CD00E6
:101800004B08CE0003104D0D4E0DCF004F08D500F4
:10181000D508031D122C0030C6000030C700003070
:10182000C800080055087B3ECC004C08D00746088D
:10183000CC004708CD004808CE0010300310CE0C75
:10184000CD0CCC0CFF3E031D1E2C4C08CF004F08C6
:10185000D5004908CC004A08CD004B08CE00103016
:101860000310CE0CCD0CCC0CFF3E031D302C4C08CD
:10187000CF004F08D5068030CC004C08D505C717DF
:10188000CA17FF30C905FF30CA050030CB0500304C
:10189000D1000030D2000030D3000730CC004C081B
:1018A000D400461C612C4908D1074A0803110318CB
:1018B0004A0A031DD2074B08031103184B0A031DE4
:1018C000D30701300310C80CC70CC60CFF3E031D24
:1018D000622C01300310C90DCA0DCB0DFF3E031D54
:1018E0006A2C0130D402031D512C0930CC004C0865
:1018F000D400461C892C4908D1074A080311031853
:101900004A0A031DD2074B08031103184B0A031D93
:10191000D30701300310C80CC70CC60CFF3E031DD3
:101920008A2C01300310D30CD20CD10CFF3E031DC6
:10193000922C0130D402031D792C5108F00052087A
:10194000F1005308F2005008CC004C08F300550891
:10195000CD004D08F4000A128A1583227008831204
:101960000313C6007108C7007208C80008000130E0
:101970008316031385000130831203138500831639
:101980000313860183120313860181308316031328
:101990008700C03083120313870083160313880166
:1019A000831203138801831603138901831203131F
:1019B0008901033090008E018F01003083160313DC
:1019C000B9000130B800C230B7000030B6000A12CA
:1019D0008A15DD210A128A150A128A11F5270A12C0
:1019E0008A150A168A11A2260A128A150A168A115F
:1019F000B7270A128A150A128A15EB220A128A15CB
:101A00000B178B17333083160313A8008030A900FF
:101A10000A128A15FA200A128A1550308316031307
:101A2000A8008030A9000A128A15FA200A128A1525
:101A30000A128A15EB220A128A1583160313A701CC
:101A400000300A168A1132270A128A1500308316CE
:101A50000313A7000030A8000A168A1152270A12A1
:101A60008A15FF3083160313A7000330A8000A1657
:101A70008A1173270A128A15EE300A168A11672610
:101A80000A128A15183083160317920061309100EC
:101A90006E309000900B4A2D910B4A2D920B4A2DDF
:101AA00000006A3083160317900010088316031392
:101AB000C4005708C601C6075608C501C507DA3075
:101AC0000A168A1113270A128A15DA3083160313AD
:101AD000A8000030A9000A128A15FA200A128A15F5
:101AE0004D3083160313A8008030A9000A128A150E
:101AF000FA200A128A150A128A15A0200A128A15DB
:101B000083160313A70100300A168A1132270A121E
:101B10008A15643083160313A9008030AA000A12C4
:101B20008A15C9200A128A150630831603179000F9
:101B3000100883160313A70000300A168A113227F3
:101B40000A128A15DA3083160313A9000030AA009E
:101B50000A128A15C9200A128A150530831603173E
:101B60009200AD309100E0309000900BB52D910BBC
:101B7000B52D920BB52D512D780883120313A000BB
:101B80007908A1007A08A2000310210D220DA300FC
:101B90002308A6007B08A0007C08A1007D08A20005
:101BA0000310210D220DA3002308A5002608031908
:101BB000E52D250826020318EC2D2603FF3A2507FC
:101BC000A00019302002031CEC2D7B08F8007C08D3
:101BD000F9007D08FA000800250803190800260806
:101BE00025020318FB2D2503FF3A2607A000193014
:101BF0002002031808000630A0002008A400FA1BE9
:101C0000A417FD1B2417F917FF30F805FF30F9055D
:101C10000030FA05FC17FF30FB05FF30FC050030F3
:101C2000FD052508260203183B2E01300310FB0D8D
:101C3000FC0DFD0DFF3E031D162E0130A5022508EB
:101C400026060319362E0130A40224080739031989
:101C5000362E152E01300310FA0CF90CF80CFF3E4D
:101C6000031D2B2E0130A0002008A60726082506FC
:101C70000319642E2A2E260825020318642E01302B
:101C80000310F80DF90DFA0DFF3E031D402E013033
:101C9000A602250826060319602E0130A402240896
:101CA00007390319602E3F2E01300310FD0CFC0C88
:101CB000FB0CFF3E031D552E0130A0002008A50798
:101CC00026082506031D542EA41F762EFF30F80685
:101CD000FF30F906FF30FA060130F807003003182C
:101CE0000130F907003003180130FA07241F882E4D
:101CF000FF30FB06FF30FC06FF30FD060130FB071E
:101D0000003003180130FC07003003180130FD07D4
:101D1000A4017808FB07790803110318790A031D49
:101D2000FC077A08031103187A0A031DFD07FD1F3B
:101D3000AB2EFF30FB06FF30FC06FF30FD06013006
:101D4000FB07003003180130FC0700300318013096
:101D5000FD07A401A40A7B08F0007C08F1007D08BF
:101D6000F2002608A0002008F3002408A1002108A2
:101D7000F4000A128A1583227008F8007108F9002D
:101D80007208FA0008008C1A8C120C1B0C130B1D25
:101D9000F12FEE300A168A1159260A128A150130DF
:101DA000831603135302F330031952020318E22E71
:101DB0000130D2070318D30A0030D307831203136C
:101DC0000617F02F83160313D201D30183120313D6
:101DD0000F0883160313D501D507831203130E08CA
:101DE00083160313D401D4075508F901F9075408E1
:101DF000F801F8070A168A11B4260A128A1578081B
:101E000083120313AA007908AB007A08AC000030F3
:101E1000A700E030A8004030A9000A128A113D272F
:101E20000A128A15831203132708C9002808CA005A
:101E30002908CB000030C600F030C7004230C8008F
:101E40000A128A15E4230A128A158312031346081C
:101E5000D6004708D7004808D8000A128A1556232A
:101E60000A128A1583120313570883160313D70126
:101E7000D70783120313560883160313D601D60718
:101E8000831203138E018F01831603136408FB0072
:101E90006508FC006608FD000030F8004830F900D5
:101EA0004430FA000A128A15BC250A128A157808ED
:101EB00083160313A1007908A2007A08A30064081E
:101EC000FB006508FC006608FD000030F800963055
:101ED000F900C430FA000A128A15BC250A128A15C4
:101EE000780883160313A4007908A5007A08A600D1
:101EF000210883120313C3008316031322088312DD
:101F00000313C40083160313230883120313C500AD
:101F100083160313240883120313C00083160313CC
:101F2000250883120313C1008316031326088312A6
:101F30000313C2000030BD000030BE000030BF00FF
:101F40000030BA002030BB00C130BC008316031340
:101F50005708F901F9075608F801F8070A168A1117
:101F6000B4260A128A15780883120313B700790879
:101F7000B8007A08B9000A128A11B6250A128A1521
:101F8000831203133708C9003808CA003908CB0088
:101F9000C030C6007F30C7004430C8000A128A151E
:101FA000E4230A128A15831203134608D600470851
:101FB000D7004808D8000A128A1556230A128A1533
:101FC000831203135708E501E5075608E401E40707
:101FD0000A168A11F8260A128A15831203130613A9
:101FE0000B110C180C108C198C116B08FF006A086F
:101FF0008A0069088400680E8300FE0E7E0E0900C8
:102CB200F000700883120313810008007208710487
:102CC2007004031908008030F2060800831603130B
:102CD200A700270883120313810008006400800103
:102CE200840A0406031900340406702E83160313A3
:102CF200A70083120C1E7A2E831603132708831251
:102D0200031399000800F100F0013A307102031830
:102D1200902E30307102031C902EF001F00A700CDC
:102D2200080083160313A800A7013A3028020318EB
:102D3200A02E30302802031CA02EA701A70A270CC0
:102D42000800831603139F179F151F159F141F104A
:102D5200831203139F171F13831603130C1383127B
:102D620003130C1308007808F0007908F100F2014F
:102D72008E30FB007B08F300F4010A128A158322CD
:102D82007008F8007108F9007208FA00080083164A
:102D92000313A800831203130910831603132808D0
:102DA20083120313880089143D3083160313A7008E
:102DB200A70BD92E83120313891008008312031361
:102DC200B100B3010130AF002F08B4007030AF0082
:102DD2002F08B2003108AF002F08A0003230B00037
:102DE2003008A10033300A128A11652308008312C9
:102DF20003136508E7006408E600670DE70CE60CBC
:102E0200670DE70CE60C66089B006408E6000330D9
:102E12000310E60DFF3E031D092F0310660D0C384B
:102E22009D00080083160313C9004908C70047081C
:102E3200CB00CC01C530C7004708CA004408C70010
:102E42004708B500CA30C8004808B600CB300A129D
:102E52008A111221831603134B0884008313800105
:102E6200080083160313A9008312031309108316A3
:102E72000313A908031D402F2708803E442F831601
:102E820003132708C03E83120313880089143D30C0
:102E920083160313A800A80B4C2F83120313891067
:102EA2000800831603132808AA002708A9002A0D80
:102EB200AA0CA90C2A0DAA0CA90C29088312031327
:102EC2009500831603132708A90003300310A90DE8
:102ED200FF3E031D672F0310290D0C3883120313C5
:102EE20097000800831603132808AA002708A900E0
:102EF2002A0DAA0CA90C2A0DAA0CA90C29088312C6
:102F020003139B00831603132708A9000330031041
:102F1200A90DFF3E031D882F0310290D0C388312C3
:102F220003139D000800F401F501701C9E2F720826
:102F3200F4070318F50A7308F50701300310F20DC0
:102F4200F30DFF3E031D9F2F01300310F10CF00C17
:102F5200FF3E031DA62F71087004031D962F7508EE
:102F6200F101F1077408F001F0070800831203135E
:102F72009214121012139212121292111215FF30A1
:102F820083160313920083120313971517159714D0
:102F92001714831603130C15831203130C119D15BA
:102FA2001D159D141D14831603130D148312031390
:102FB2000D10080083160313AB01AC01271CE72F89
:102FC2002908AB070318AC0A2A08AC070130031022
:102FD200A90DAA0DFF3E031DE82F01300310A80C16
:102FE200A70CFF3E031DEF2F28082704031DDF2F28
:0E2FF2002C08A801A8072B08A701A7070800B4
:02400E0032FF7F
:00000001FF
