:100000000A128A1112280800FE00030E831203133D
:10001000DF000408E0000A08E1007F08E2000A129D
:100020008A1112290A128A11152883136330840059
:100030006E300A168A110E200A128A11BB30840013
:10004000D4300A168A110E200A128A11831603135D
:100050000A168A15FD270A128A11D4000A168A1573
:10006000FE270A128A11D5000A168A15FF27D60024
:1000700083010A168A11182E831203132308A6007F
:100080002408A7002508A8000310270D280DA900A3
:100090002908AE00AE08031D54280030A00000302F
:1000A000A1000030A20008002008A6002108A70037
:1000B0002208A8000310270D280DA9002908AF0069
:1000C000AF08031D6A280030A0000030A1000030F6
:1000D000A20008000030AB000030AC000030AD00E2
:1000E00089302F07A6002608AE022308A6002408A0
:1000F000A7002508A80010300310A80CA70CA60C18
:10010000FF3E031D7C282608A9002908AF0020080F
:10011000A6002108A7002208A80010300310A80C90
:10012000A70CA60CFF3E031D8E282608A90029084F
:10013000AF068030A6002608AF05A417FF30A30540
:10014000FF30A4050030A505A117FF30A005FF3042
:10015000A1050030A2051830A6002608AA0001302B
:100160000310AB0DAC0DAD0DFF3E031DB0282208F2
:100170002502031DC12821082402031DC1282008CF
:100180002302031CCE282008A3022108031C210FF0
:10019000A4022208031C220AA5022B14013003101A
:1001A000A30DA40DA50DFF3E031DCF280130AA020B
:1001B000031DAF282B08F0002C08F1002D08F200D9
:1001C0002E08A6002608F3002F08A7002708F40031
:1001D0000A168A115323700883120313A0007108B2
:1001E000A1007208A20008008316031381120112F5
:1001F00081110115811401140B118B1608000800E0
:10020000FF0001308A007F08820705290A128A113F
:10021000FF28FF0001308A007F0882070E290A129A
:100220008A1103288C1A8C120C1B0C130B1DA62F81
:10023000EE300A168A1100200A128A110130831644
:1002400003134502F3300319440203183129013026
:10025000C4070318C50A0030C50783120313061725
:10026000A52F83160313C401C501831203130F08BE
:1002700083160313C701C707831203130E088316DF
:100280000313C601C6074708F901F9074608F80134
:10029000F8070A168A1154200A128A117808831264
:1002A0000313A3007908A4007A08A5000030A00079
:1002B000E030A1004030A2000A128A113C200A124C
:1002C0008A11831203132008B3002108B400220806
:1002D000B5000030B000F030B1004230B2000A1674
:1002E0008A1145250A128A11831203133008C000AF
:1002F0003108C1003208C2000A168A1128240A12E5
:100300008A1183120313410883160313C901C90715
:1003100083120313400883160313C801C80783120E
:1003200003138E018F0183160313540883120313E2
:10033000B30083160313550883120313B400831606
:100340000313560883120313B500F630B0002830AB
:10035000B1003F30B2000A168A1145250A128A11EF
:10036000831203133008C3003108C4003208C500EB
:100370000030C000C830C1004230C2000A168A11E5
:10038000F7260A128A11831203134008CD00410890
:10039000CE004208CF000A128A1593200A128A1151
:1003A000831203134D0883160313B500831203133E
:1003B0004E0883160313B600831203134F088316E7
:1003C0000313B700540883120313C00083160313EA
:1003D000550883120313C1008316031356088312B2
:1003E0000313C20083160313540883120313B300CC
:1003F00083160313550883120313B40083160313E3
:10040000560883120313B5000030B0000030B1006D
:100410000030B2000A168A1145250A128A11831289
:1004200003133008CD003108CE003208CF000A1285
:100430008A1593200A128A11831203134D08C300F0
:100440004E08C4004F08C5000A168A11F7260A1282
:100450008A1183120313400883160313AC0083121E
:100460000313410883160313AD00831203134208DC
:1004700083160313AE00540883120313C0008316BF
:100480000313550883120313C10083160313560880
:1004900083120313C2008316031335088312031358
:1004A000C30083160313360883120313C400831694
:1004B0000313370883120313C5000A168A11F7269F
:1004C0000A128A1183120313400883160313AF0024
:1004D00083120313410883160313B000831203131E
:1004E000420883160313B100003083120313C000C7
:1004F000C830C1004230C200831603132C08831297
:100500000313C300831603132D0883120313C400BF
:10051000831603132E0883120313C5000A168A11CB
:10052000F7260A128A118312031340088316031355
:10053000B80083120313410883160313B900831212
:100540000313420883160313BA004908F901F90797
:100550004808F801F8070A168A1154200A128A116D
:10056000780883120313D0007908D1007A08D200EA
:100570000030D3002030D400C130D5000030D60088
:100580000030D7000030D800831603132F088312E1
:100590000313D90083160313300883120313DA0000
:1005A00083160313310883120313DB00831603132E
:1005B000380883120313DC008316031339088312EF
:1005C0000313DD00831603133A0883120313DE00BE
:1005D0000A128A159D200A128A11831203135008E9
:1005E00083160313BB0083120313510883160313EE
:1005F000BC0083120313520883160313BD00540872
:1006000083120313C00083160313550883120313C8
:10061000C10083160313560883120313C200831606
:100620000313540883120313B300831603135508EE
:1006300083120313B40083160313560883120313A3
:10064000B5000030B0000030B1000030B2000A1632
:100650008A1145250A128A11831203133008CD002E
:100660003108CE003208CF000A128A1593200A12F0
:100670008A11831203134D08C3004E08C4004F08AB
:10068000C5000A168A11F7260A128A11831203136B
:10069000400883160313B500831203134108831621
:1006A0000313B60083120313420883160313B70023
:1006B000540883120313B3008316031355088312DF
:1006C0000313B40083160313560883120313B500F3
:1006D0000030B0000030B1000030B2000A168A11BC
:1006E00045250A128A11831203133008C30031080A
:1006F000C4003208C5000030C000C830C100C2309C
:10070000C2000A168A11F7260A128A1183120313ED
:100710004008CD004108CE004208CF000A128A15D9
:1007200093200A128A11831203134D0883160313B0
:10073000AC00831203134E0883160313AD0083121B
:1007400003134F0883160313AE00540883120313D8
:10075000B30083160313550883120313B4008316E2
:100760000313560883120313B5000030B0000030A5
:10077000B1000030B2000A168A1145250A128A110A
:10078000831203133008C3003108C4003208C500C7
:100790000030C000C830C1004230C2000A168A11C1
:1007A000F7260A128A11831203134008CD0041086C
:1007B000CE004208CF000A128A1593200A128A112D
:1007C000831203134D0883160313A000831203132F
:1007D0004E0883160313A100831203134F088316D8
:1007E0000313A200540883120313C00083160313DB
:1007F000550883120313C10083160313560883128E
:100800000313C20083160313540883120313B300A7
:1008100083160313550883120313B40083160313BE
:10082000560883120313B5000030B0000030B10049
:100830000030B2000A168A1145250A128A11831265
:1008400003133008CD003108CE003208CF000A1261
:100850008A1593200A128A11831203134D08C300CC
:100860004E08C4004F08C5000A168A11F7260A125E
:100870008A1183120313400883160313B8008312EE
:100880000313410883160313B900831203134208AC
:1008900083160313BA00003083120313C000C8305C
:1008A000C1004230C20083160313350883120313BC
:1008B000C30083160313360883120313C400831680
:1008C0000313370883120313C5000A168A11F7268B
:1008D0000A128A1183120313400883160313B2000D
:1008E00083120313410883160313B3008312031307
:1008F000420883160313B400540883120313C00084
:1009000083160313550883120313C10083160313C0
:10091000560883120313C200831603132C08831294
:100920000313C300831603132D0883120313C4009B
:10093000831603132E0883120313C5000A168A11A7
:10094000F7260A128A118312031340088316031331
:10095000A30083120313410883160313A400831218
:100960000313420883160313A500540883120313CC
:10097000C00083160313550883120313C1008316A6
:100980000313560883120313C200831603132008AF
:1009900083120313C3008316031321088312031366
:1009A000C40083160313220883120313C5000A161A
:1009B0008A11F7260A128A1183120313400883163C
:1009C0000313A60083120313410883160313A70021
:1009D00083120313420883160313A8004908F90180
:1009E000F9074808F801F8070A168A1154200A1274
:1009F0008A11780883120313D0007908D1007A088D
:100A0000D20083160313380883120313D30083160E
:100A10000313390883120313D400831603133A080F
:100A200083120313D50083160313320883120313B2
:100A3000D60083160313330883120313D7008316DB
:100A40000313340883120313D800831603132308F7
:100A500083120313D900831603132408831203138C
:100A6000DA0083160313250883120313DB008316B1
:100A70000313260883120313DC00831603132708CD
:100A800083120313DD008316031328088312031354
:100A9000DE000A128A159D200A128A11831203139E
:100AA000500883160313BE008312031351088316E4
:100AB0000313BF0083120313520883160313C000ED
:100AC000540883120313C0008316031355088312BE
:100AD0000313C10083160313560883120313C200C5
:100AE00083160313540883120313B30083160313EE
:100AF000550883120313B400831603135608831298
:100B00000313B5000030B0000030B1000030B20077
:100B10000A168A1145250A128A1183120313300816
:100B2000CD003108CE003208CF000A128A1593207A
:100B30000A128A11831203134D08C3004E08C40021
:100B40004F08C5000A168A11F7260A128A11831265
:100B50000313400883160313B500831203134108DF
:100B600083160313B600831203134208831603137C
:100B7000B700540883120313C000831603135508EB
:100B800083120313C1008316031356088312031341
:100B9000C20083160313540883120313B300831691
:100BA0000313550883120313B40083160313560866
:100BB00083120313B5000030B0000030B1000030E4
:100BC000B2000A168A1145250A128A1183120313EC
:100BD0003008CD003108CE003208CF000A128A1545
:100BE00093200A128A11831203134D08C3004E0882
:100BF000C4004F08C5000A168A11F7260A128A1186
:100C000083120313400883160313A90083120313EE
:100C1000410883160313AA008312031342088316A4
:100C20000313AB00003083120313C000C830C100AF
:100C30004230C20083160313350883120313C30026
:100C400083160313360883120313C4008316031399
:100C5000370883120313C5000A168A11F7260A12F1
:100C60008A1183120313400883160313AF00831203
:100C70000313410883160313B000831203134208C1
:100C800083160313B100003083120313C000C83071
:100C9000C100C230C2008316031354088312031329
:100CA000C30083160313550883120313C40083166D
:100CB0000313560883120313C5000A168A11F72678
:100CC0000A128A1183120313400883160313B80013
:100CD00083120313410883160313B900831203130D
:100CE000420883160313BA00003083120313C000B6
:100CF000C830C1004230C200831603135408831267
:100D00000313C30083160313550883120313C4008F
:100D100083160313560883120313C5000A168A119B
:100D2000F7260A128A11831203134008831603134D
:100D3000B20083120313410883160313B300831216
:100D40000313420883160313B4004908F901F90795
:100D50004808F801F8070A168A1154200A128A1165
:100D6000780883120313D0007908D1007A08D200E2
:100D700083160313290883120313D3008316031366
:100D80002A0883120313D400831603132B0883123B
:100D90000313D500831603132F0883120313D60001
:100DA00083160313300883120313D700831603132B
:100DB000310883120313D8008316031338088312F3
:100DC0000313D90083160313390883120313DA00BF
:100DD000831603133A0883120313DB0083160313ED
:100DE000320883120313DC008316031333088312C3
:100DF0000313DD0083160313340883120313DE008C
:100E00000A128A159D200A128A11831203135008B0
:100E100083160313C10083120313510883160313AF
:100E2000C20083120313520883160313C3003E0843
:100E3000F0003F08F1004008F2003B08F3003C08D6
:100E4000F4003D08F5000A168A11F6220A128A11EA
:100E50000318402F831603133B0883120313B300B8
:100E6000831603133C0883120313B4008316031381
:100E70003D0883120313B500C030B0007F30802FCF
:100E8000831603134108F0004208F1004308F20002
:100E90003E08F3003F08F4004008F5000A168A11E6
:100EA000F6220A128A1103186B2F831603133E08C9
:100EB00083120313B300831603133F088312031333
:100EC000B40083160313400883120313B500C03027
:100ED000B0003F30802F83160313410883120313A1
:100EE000B30083160313420883120313B40083165E
:100EF0000313430883120313B5000030B000003021
:100F0000B1004430B2000A168A1145250A128A112E
:100F1000831203133008C0003108C1003208C20038
:100F20000A168A1128240A128A118312031341080F
:100F3000CF01CF074008CE01CE070A168A119620AE
:100F40000A128A118312031306130B110C180C10CA
:100F50008C198C116208FF0061088A006008840007
:100F60005F0E8300FE0E7E0E090083160317200815
:100F7000A4002108A5002208A6002308A700043029
:100F80000310A40DA50DA60DA70DFF3E031DC02F38
:100F90002708940026089300250892002408910051
:100FA00001309800193097004030960000309500CD
:100FB0000A168A11B624831603171108FF3E8316FA
:100FC00003139900981318139816181218159814EB
:100FD00018108312031398171813981218169811E3
:100FE000181198101810831603130C128312031390
:100FF0000C12831603138C16831203138C12080031
:10100000FF1B0A2883137F1883170008840A03191B
:10101000FF0A080008308A000408840A82070034A6
:10102000013400340A34003464340034E8340334C6
:10103000103427340A340D3420342D342D342D341B
:101040002D342D342D342D34203445345334543440
:101050004F34553452344F342034443445342034E2
:10106000503449344C344834413420342D342D34F8
:101070002D342D342D342D342D3420340A340D34B8
:101080002034003449346E34693463346934613453
:101090006C3469347A3461346E3464346F3420349F
:1010A0006F34203450344934433431343634463488
:1010B00038343734373441340A340D34003455343D
:1010C00053344134523454343A342034313431348A
:1010D00035342E3432343034303462347034733436
:1010E0000A340D34003449346E346934633469345D
:1010F00061346C3469347A3461346E3464346F34FE
:101100002E342E342E3400342534303434346434C8
:101110000034313400343234003433340034343465
:10112000003435340034831203134F084E044D0449
:10113000031908008030CF060800831203135308F8
:10114000F0005408F1005508F2005008F30051086F
:10115000F4005208F5000A168A11F6220A128A15BE
:10116000031CBF287A300A168A11B120003083127E
:101170000313D0000030D1000030D20008008312E9
:1011800003135308F0005408F1005508F20050080A
:10119000F3005108F4005208F5000A168A11F622ED
:1011A0000A128A1503184929831203135608F000FE
:1011B0005708F1005808F2005008F3005108F400F5
:1011C0005208F5000A168A11F6220A128A15031C23
:1011D00049297C300A168A11B1200A128A15831215
:1011E00003135608C0005708C1005808C20053082E
:1011F000CD005408CE005508CF000A128A1593205E
:101200000A128A15831203134D08C3004E08C40046
:101210004F08C5000A168A11F7260A128A1583128A
:1012200003134008A0004108A1004208A200500892
:10123000C0005108C1005208C2005308CD00540834
:10124000CE005508CF000A128A1593200A128A157B
:10125000831203134D08C3004E08C4004F08C50095
:101260000A168A11F7260A128A15831203134008F8
:10127000A3004108A4004208A5000A128A113C20DC
:10128000831203132008D0002108D1002208D200C5
:101290000800831203135608F0005708F10058089D
:1012A000F2005008F3005108F4005208F5000A1645
:1012B0008A11F6220A128A15031880298312031351
:1012C0005908F0005A08F1005B08F2005008F300DA
:1012D0005108F4005208F5000A168A11F6220A1283
:1012E0008A15031C80297E300A168A11B12000302D
:1012F00083120313D0008030D1003F30D2000800A9
:10130000831203135908F0005A08F1005B08F20039
:101310005008F3005108F4005208F5000A168A112B
:10132000F6220A128A1503180A2A831203135C088C
:10133000F0005D08F1005E08F2005008F30051086B
:10134000F4005208F5000A168A11F6220A128A15CC
:10135000031C0A2A80300A168A11B1200A128A1543
:10136000831203135C08C0005D08C1005E08C20060
:101370005908CD005A08CE005B08CF000A128A1522
:1013800093200A128A15831203134D08C3004E08D6
:10139000C4004F08C5000A168A11F7260A128A15DA
:1013A000831203134008A0004108A1004208A200D4
:1013B0005C08C0005D08C1005E08C2005008CD0096
:1013C0005108CE005208CF000A128A1593200A1243
:1013D0008A15831203134D08C3004E08C4004F083A
:1013E000C5000A168A11F7260A128A1583120313FA
:1013F0004008A3004108A4004208A5000A128A116F
:101400003C20831203132008D0002108D1002208B9
:10141000D2000800831203135C08F0005D08F1009D
:101420005E08F2005008F3005108F4005208F5007D
:101430000A168A11F6220A128A1503180800823049
:101440000A168A11B120003083120313D000003035
:10145000D1000030D2000800013083120313A2072C
:10146000FF30220784000A128A150A200A128A1500
:10147000A5002508B000B0080319102D831203132E
:101480003008253A0319822A01302007A5002108D7
:101490000318013EA600250884008317261C831329
:1014A000800803196A2A3008A5002508F0000130D9
:1014B0002007A60021080318013EA7002608840083
:1014C0008317271C831300080A128A1109210A12A4
:1014D0008A152C2A831203133008A50020088400E3
:1014E0008317211C831300088400250883138000C0
:1014F0000130A500200884008317211C83132508D0
:1015000080072C2AAE01AF01AD018B2A2D150130C9
:10151000A5002508A207220884000A128A150A20BD
:101520000A128A15303A0319862A962A220884005C
:101530000A128A150A200A128A150A168A1116201A
:101540000A128A15031CE62A83120313AE01AF01A7
:101550000A30F0000030F100831203132F08F3016A
:10156000F3072E08F201F2070A168A1171210A12F6
:101570008A15710883120313AF01AF077008AE011B
:10158000AE07220884000A128A150A200A128A1558
:10159000D03EA500FF3003180030A6002508AE0796
:1015A0000318AF0A2608AF070130A5002508A207D7
:1015B000220884000A128A150A200A128A150A16BD
:1015C0008A1116200A128A150318A82A01308312DC
:1015D0000313A207FF30220784000A128A150A208B
:1015E0000A128A15B000003A0319102D643A031943
:1015F000FD2A0D3A0319FD2A2C2A8312031323080E
:1016000084008317241C83130008A5000230800780
:101610002508840083170008A900840A0008AA008E
:10162000AA1F1B2B0330A5002508AD04A909AA0990
:10163000A90A0319AA0AB001B00A3008053A031929
:10164000422B3008A5002507013E84000A128A15A6
:101650000A200A128A15A6000A128A150A200A12FE
:101660008A15A70027082A02031D382B26082902FD
:10167000031C422B0130A5002508B0073008053AAD
:10168000031D212B2F082E040319502B2D0803397D
:101690000319502BFF30AE070318AF0AFF30AF0716
:1016A0003008A500A601A51BA6032608803AA700BE
:1016B0002F08803A2702031D5F2B2E0825020318EE
:1016C0006F2B831203133008A500A601A51BA603E8
:1016D0002508AE022608031CAF03AF02732B83124A
:1016E0000313AE01AF012D1D022C2D080339031980
:1016F000B62B01302007A50021080318013EA600E3
:10170000250884008317261C8313800803199F2B48
:101710002D30A5002508F00001302007A600210883
:101720000318013EA700260884008317271C831393
:1017300000080A128A1109210A128A15B62B2D30C7
:1017400083120313A500200884008317211C831330
:10175000000884002508831380000130A5002008BC
:1017600084008317211C8313250880078312031329
:101770002F082E040319902C01302007A500210802
:101780000318013EA600250884008317261C831336
:1017900080080319E22B3030A5002508F000013045
:1017A0002007A60021080318013EA7002608840090
:1017B0008317271C831300080A128A1109210A12B1
:1017C0008A15F92B303083120313A50020088400FA
:1017D0008317211C831300088400250883138000CD
:1017E0000130A500200884008317211C83132508DD
:1017F0008007FF3083120313AE070318AF0AFF30D0
:10180000AF07B82B2F082E0403194F2C01302007E7
:10181000A50021080318013EA600250884008317AF
:10182000261C8313800803192C2C2030A5002508C2
:10183000F00001302007A60021080318013EA70090
:10184000260884008317271C831300080A128A11B4
:1018500009210A128A15432C203083120313A50094
:10186000200884008317211C8313000884002508A6
:10187000831380000130A500200884008317211CF9
:10188000831325088007FF3083120313AE07031864
:10189000AF0AFF30AF072F082E04031D062C2D08BA
:1018A00003390319902C01302007A50021080318E3
:1018B000013EA600250884008317261C8313800898
:1018C0000319792C2D30A5002508F00001302007E0
:1018D000A60021080318013EA700260884008317EC
:1018E000271C831300080A128A1109210A128A157B
:1018F000902C2D3083120313A50020088400831739
:10190000211C831300088400250883138000013004
:10191000A500200884008317211C83132508800755
:10192000831203133008A5002508A800FF30831296
:101930000313A5002508A8072808FF3A03192C2A35
:101940000A30F8000030F9002808A5002507013EFC
:1019500084000A128A150A200A128A15F0000A1257
:101960008A150A200A128A15F1002A08F301F307E2
:101970002908F201F2070A168A1178220A128A153A
:101980007108FB01FB077008FA01FA070A168A11B1
:101990000E220A128A157808303E83120313A6001D
:1019A0002608B00001302007A50021080318013ED9
:1019B000A600250884008317261C831380080319BA
:1019C000F82C3008A5002508F00001302007A600FB
:1019D00021080318013EA700260884008317271C4E
:1019E000831300080A128A1109210A128A15962CFB
:1019F000831203133008A500200884008317211CDC
:101A00008313000884002508831380000130A5009B
:101A1000200884008317211C831325088007962C37
:101A200083120313A001A1010800013083160317DC
:101A3000A107FF30210784000A128A150A200A1222
:101A40008A15A4002408AF00AF080319FB2F8316E2
:101A500003172F08253A03196B2D01301F07A40027
:101A600020080318013EA500240884008317251CC4
:101A7000831380080319532D2F08A4002408910014
:101A800001301F07A50020080318013EA600250805
:101A900084008317261C831300080A128A11002170
:101AA0000A128A15152D831603172F08A4001F0884
:101AB00084008317201C83130008840024088313E8
:101AC00080000130A4001F0884008317201C8313AA
:101AD00024088007152DAD01AE01AC01742D2C1525
:101AE0000130A4002408A107210884000A128A15E5
:101AF0000A200A128A15303A03196F2D7F2D21080A
:101B000084000A128A150A200A128A150A168A11F6
:101B100032200A128A15031CCF2D83160317AD013C
:101B2000AE010A30831603179100003092002E0890
:101B3000940194072D08930193070A168A11B8217E
:101B40000A128A15831603171208AE01AE07110890
:101B5000AD01AD07210884000A128A150A200A1275
:101B60008A15D03EA400FF3003180030A5002408D9
:101B7000AD070318AE0A2508AE070130A4002408FB
:101B8000A107210884000A128A150A200A128A1560
:101B90000A168A1132200A128A150318912D013073
:101BA00083160317A107FF30210784000A128A1544
:101BB0000A200A128A15AF00003A0319FB2F643A73
:101BC0000319E62D0D3A0319E62D152D831603177B
:101BD000220884008317231C83130008A40002300A
:101BE00080072408840083170008A800840A0008DE
:101BF000A900A91F042E0330A4002408AC04A809DE
:101C0000A909A80A0319A90AAF01AF0A2F08053AC2
:101C100003192B2E2F08A4002407013E84000A126A
:101C20008A150A200A128A15A5000A128A150A20A6
:101C30000A128A15A60026082902031D212E25084E
:101C40002802031C2B2E0130A4002408AF072F0804
:101C5000053A031D0A2E2E082D040319392E2C08CF
:101C600003390319392EFF30AD070318AE0AFF30D0
:101C7000AE072F08A400A501A41BA5032508803AE0
:101C8000A6002E08803A2602031D482E2D082402A5
:101C90000318582E831603172F08A400A501A41BB0
:101CA000A5032408AD022508031CAE03AE025C2E7A
:101CB00083160317AD01AE012C1DEB2E2C08033942
:101CC00003199F2E01301F07A40020080318013EAE
:101CD000A500240884008317251C8313800803199A
:101CE000882E2D30A4002408910001301F07A50084
:101CF00020080318013EA600250884008317261C2F
:101D0000831300080A128A1100210A128A159F2ED5
:101D10002D3083160317A4001F0884008317201C8E
:101D20008313000884002408831380000130A4007A
:101D30001F0884008317201C831324088007831640
:101D400003172E082D040319792F01301F07A40053
:101D500020080318013EA500240884008317251CD1
:101D6000831380080319CB2E3030A400240891007F
:101D700001301F07A50020080318013EA600250812
:101D800084008317261C831300080A128A1100217D
:101D90000A128A15E22E303083160317A4001F089A
:101DA00084008317201C83130008840024088313F5
:101DB00080000130A4001F0884008317201C8313B7
:101DC00024088007FF3083160317AD070318AE0AF7
:101DD000FF30AE07A12E2E082D040319382F013035
:101DE0001F07A40020080318013EA5002408840052
:101DF0008317251C831380080319152F2030A40096
:101E00002408910001301F07A50020080318013E97
:101E1000A600250884008317261C831300080A12D5
:101E20008A1100210A128A152C2F203083160317DD
:101E3000A4001F0884008317201C8313000884005B
:101E40002408831380000130A4001F088400831736
:101E5000201C831324088007FF3083160317AD0767
:101E60000318AE0AFF30AE072E082D04031DEF2E17
:101E70002C0803390319792F01301F07A40020080B
:101E80000318013EA500240884008317251C831332
:101E900080080319622F2D30A4002408910001301E
:101EA0001F07A50020080318013EA600250884008E
:101EB0008317261C831300080A128A1100210A12B4
:101EC0008A15792F2D3083160317A4001F0884006C
:101ED0008317201C831300088400240883138000C8
:101EE0000130A4001F0884008317201C83132408DA
:101EF0008007831603172F08A4002408A700FF30CB
:101F000083160317A4002408A7072708FF3A03191C
:101F1000152D0A30990000309A002708A4002407E4
:101F2000013E84000A128A150A200A128A159100BD
:101F30000A128A150A200A128A15920029089401A9
:101F400094072808930193070A168A11B6220A12E9
:101F50008A158316031712089C019C0711089B0120
:101F60009B070A168A1142220A128A158316031742
:101F70001908303EA5002508AF0001301F07A40056
:101F800020080318013EA500240884008317251C9F
:101F9000831380080319E32F2F08A400240891005D
:101FA00001301F07A50020080318013EA6002508E0
:101FB00084008317261C831300080A128A1100214B
:101FC0000A128A157F2F831603172F08A4001F08F3
:101FD00084008317201C83130008840024088313C3
:101FE00080000130A4001F0884008317201C831385
:101FF000240880077F2F831603179F01A001080084
:10200000F000700883120313810008008316031781
:1020100091001108831203138100080064008001FD
:10202000840A04060319003404060F28F100F001A5
:102030003A3071020318222830307102031C222822
:10204000F001F00A700C0800831603179100831248
:1020500003130C1E2728831603171108831203137A
:102060009900080083160317920091013A3012027A
:102070000318402830301202031C40289101910AB5
:10208000110C0800831603139F179F151F159F142B
:102090001F10831203139F171F13831603130C13B0
:1020A000831203130C1308007808F0007908F1007C
:1020B000F2018E30FB007B08F300F4010A168A114E
:1020C00053237008F8007108F9007208FA0008003C
:1020D0008316031792008312031309108316031744
:1020E000120883120313880089143D3083160317E6
:1020F0009100910B7928831203138910080083162D
:10210000031792008312031309148316031712088E
:1021100083120313880089143D308316031791003E
:10212000910B902883120313891008008312031364
:102130004F08FD004E08FC007D0DFD0CFC0C7D0DD4
:10214000FD0CFC0C7C089B004E08FC0003300310C7
:10215000FC0DFF3E031DA72803107C0D0C389D00CD
:10216000080083120313B200B4010130B10031083A
:10217000B5007030B1003108B3003430A000003039
:10218000A1003208B1003108A2003330A3000030B2
:10219000A4000A128A152C22080083160317930044
:1021A000831203130910831603179308031DDB28FA
:1021B0001108803EDF28831603171108C03E8312E2
:1021C0000313880089143D30831603179200920B85
:1021D000E72883120313891008008316031794005D
:1021E000140884000A128A150A200A168A11003877
:1021F00003190800140884000A128A150A200A1616
:102200008A110A168A117F200A168A110130831654
:102210000317930013089407F02883160317120876
:10222000940011089300140D940C930C140D940C4D
:10223000930C1308831203139500831603171108D8
:10224000930003300310930DFF3E031D222903105A
:10225000130D0C388312031397000800831603171D
:102260001208940011089300140D940C930C140D93
:10227000940C930C1308831203139B00831603170B
:102280001108930003300310930DFF3E031D4329F3
:102290000310130D0C38831203139D0008008316DE
:1022A0000317B4003408B3003308B600B701B130E7
:1022B000B3003308B500B6309F000130A0003008ED
:1022C000B3003308A100B530A2000130A3000A1208
:1022D0008A15152583160317360884008313800199
:1022E0000800F401F501701C7B297208F40703183B
:1022F000F50A7308F50701300310F20DF30DFF3EE8
:10230000031D7C2901300310F10CF00CFF3E031D6E
:10231000832971087004031D73297508F101F10701
:102320007408F001F00708008312031392141210CE
:1023300012139212121292111215FF308316031308
:102340009200831203139715171597141714831609
:1023500003130C15831203130C119D151D159D14E9
:102360001D14831603130D14831203130D1008009C
:102370008316031795019601111CC42913089507AC
:102380000318960A1408960701300310930D940D54
:10239000FF3E031DC52901300310920C910CFF3E36
:1023A000031DCC2912081104031DBC291608920133
:1023B0009207150891019107080083160317130867
:1023C00083120313FF00831603171208840083127D
:1023D00003130A128A1500200A168A1100380319FD
:1023E000080083160317130883120313FF008316D4
:1023F000031712088400831203130A128A1500209F
:102400000A168A110A168A1124200A168A11013026
:102410008316031792070318930ADD2979087804B5
:1024200003193B2AFD01FD0AF91B222A0130031082
:10243000F80DF90DFF3E031D172A0130FC007C0842
:10244000FD07142A79087B02031D282A78087A02DE
:10245000031C302A7808FA027908031CFB03FB02EC
:1024600001300310F90CF80CFF3E031D312A013036
:10247000FD02031D222A7B08F901F9077A08F801F9
:10248000F8070800831603171A0819040319712A9C
:102490009E019E0A9A1B582A01300310990D9A0D2D
:1024A000FF3E031D4D2A01309D001D089E074A2A4C
:1024B0001A081C02031D5E2A19081B02031C662A47
:1024C00019089B021A08031C9C039C02013003108C
:1024D0009A0C990CFF3E031D672A01309E02031DD2
:1024E000582A1C089A019A071B08990199070800A5
:1024F000F501F601710870040319AF2AF701F70A14
:10250000F11B8E2A01300310F00DF10DFF3E031D6B
:10251000832A0130F4007408F707802A0130031081
:10252000F50DF60DFF3E031D8F2A71087302031D82
:102530009B2A70087202031CA42A7008F202710818
:10254000031CF303F302751401300310F10CF00CBB
:10255000FF3E031DA52A0130F702031D8E2A7608CF
:10256000F101F1077508F001F00708008316031761
:1025700097019801120811040319EF2A9601960A8F
:10258000921BCE2A01300310910D920DFF3E031DC8
:10259000C32A0130950015089607C02A01300310A0
:1025A000970D980DFF3E031DCF2A12081402031D3C
:1025B000DB2A11081302031CE42A110893021208F3
:1025C000031C94039402171401300310920C910C15
:1025D000FF3E031DE52A01309602031DCE2A18088E
:1025E000920192071708910191070800F21F1D2B15
:1025F0000030F6000030F7008030F8007009F90074
:102600007109FA007209FB00F90A0319FA0A0319A1
:10261000FB0A7908F6077A0803187A0F102B112B9A
:10262000F7077B0803187B0F162B172BF807760884
:10263000F0007708F1007808F200F51F442B003015
:10264000F6000030F7008030F8007309F9007409D3
:10265000FA007509FB00F90A0319FA0A0319FB0AC3
:102660007908F6077A0803187A0F372B382BF70703
:102670007B0803187B0F3D2B3E2BF8077608F300F1
:102680007708F4007808F5008030F2068030F5060F
:1026900075087202031D080074087102031D08000A
:1026A000730870020800730803195B2B7208710429
:1026B0007004031D6E2B0030F0000030F10000307C
:1026C000F20008000130F5007508F307013003102F
:1026D000F20CF10CF00CFF3E031D672BFE3072056F
:1026E0000319892B622B0130F5007508F3070130BF
:1026F000F007003003180130F107003003180130F3
:10270000F20701300310F20CF10CF00CFF3E031D38
:10271000822BFF3072050319982B732B0130F302C3
:1027200001300310F00DF10DF20DFF3E031D912B52
:10273000F11F8E2B7318A22BFF30F0057F30F105AF
:10274000FF30F2050310F30C7308F500F601F701F2
:1027500010300310F50DF60DF70DFF3E031DA92BEC
:102760007508F0047608F1047708F2047408031978
:102770000800F2170800831603139F111F159F10FE
:102780001F105A30831603179400C3309300930B25
:10279000C72B940BC72B30300A168A1168200A16F3
:1027A0008A111830831603179400EF309300930BAF
:1027B000D72B940BD72B30300A168A1168200A16B3
:1027C0008A119930831603179300930BE52B303051
:1027D0000A168A1168200A168A113D3083160317DB
:1027E0009300930BF12B38300A168A1168200A16D1
:1027F0008A113D30831603179300930BFD2B013094
:102800000A168A1168200A168A110C3083160317DB
:102810009400F7309300930B0B2C940B0B2C0C3083
:102820000A168A1168200A168A113D30831603178A
:102830009300930B192C06300A168A1168200A1689
:102840008A113D30831603179300930B252C080043
:10285000831203134008C4004108C5004208C600A3
:102860000310450D460DC7004708CD00CD08031DD8
:10287000422C0030C3000030C2000030C1000030E4
:10288000C00008004008C4004108C5004208C60056
:1028900017300310C60CC50CC40CFF3E031D492C99
:1028A0004408C7004708C800C117FF30C005FF3003
:1028B000C1050030C2054008C9004108CA004208ED
:1028C000CB00CC018E30CD02CD1F842C4D08803A38
:1028D0008F3E0318742C0030C3000030C20000305B
:1028E000C1000030C000080001300310CC0CCB0C3C
:1028F000CA0CC90CFF3E031D752C0130C4004408EE
:10290000CD0703199F2C742C18304D02031C9C2CEE
:102910000030C3000030C2000030C1000030C000F1
:1029200008000130C4000310C90DCA0DCB0DCC0D39
:10293000C40B932C0130CD02CD08031D912C480807
:102940000319AD2CC909CA09CB09CC09C90A031955
:10295000CA0A0319CB0A0319CC0A4C08C3004B0856
:10296000C2004A08C1004908C000080083160317C6
:102970009B01941FC82C9109920993099409910A0B
:102980000319920A0319930A0319940A9B019B0ADB
:10299000981FD92C9509960997099809950A031942
:1029A000960A0319970A0319980A01309900190821
:1029B0009B0600309F0000309E0000309D000030DC
:1029C0009C00140813041204110403192E2D9A01FB
:1029D0009A0A941BF92C013099000310910D920D65
:1029E000930D940D990BED2C0130990019089A075D
:1029F000E92C0130990003109C0D9D0D9E0D9F0D3B
:102A0000990BFB2C14081802031D102D1308170234
:102A1000031D102D12081602031D102D110815029A
:102A2000031C212D110895021208031C120F960297
:102A30001308031C130F97021408031C140F9802A9
:102A40001C1401300310940C930C920C910CFF3E5B
:102A5000031D222D01309A02031DF92C1B080319B6
:102A60003C2D9C099D099E099F099C0A03199D0AFA
:102A700003199E0A03199F0A1F0894001E08930059
:102A80001D0892001C0891000800831203133008EF
:102A9000B6003108B7003208B8000310370D380D02
:102AA000B9003908BA00BA08031D5D2D0030B00026
:102AB0000030B1000030B20008003308B60034081E
:102AC000B7003508B8000310370D380DB9003908C4
:102AD000BF00BF08031D732D0030B0000030B100EF
:102AE0000030B20008003F087B3EB6003608BA0747
:102AF0003008B6003108B7003208B80010300310B3
:102B0000B80CB70CB60CFF3E031D7F2D3608B9007C
:102B10003908BF003308B6003408B7003508B800DC
:102B200010300310B80CB70CB60CFF3E031D912DEE
:102B30003608B9003908BF068030B6003608BF0530
:102B4000B117B417FF30B305FF30B4050030B50539
:102B50000030BB000030BC000030BD000730B600C4
:102B60003608BE00301CC22D3308BB0734080311E1
:102B70000318340A031DBC07350803110318350A6E
:102B8000031DBD0701300310B20CB10CB00CFF3EA9
:102B9000031DC32D01300310B30DB40DB50DFF3E61
:102BA000031DCB2D0130BE02031DB22D0930B6002E
:102BB0003608BE00301CEA2D3308BB073408031169
:102BC0000318340A031DBC07350803110318350A1E
:102BD000031DBD0701300310B20CB10CB00CFF3E59
:102BE000031DEB2D01300310BD0CBC0CBB0CFF3ED4
:102BF000031DF32D0130BE02031DDA2D3B08F0004A
:102C00003C08F1003D08F2003A08B6003608F3002F
:102C10003F08B7003708F4000A168A1153237008DA
:102C200083120313B0007108B1007208B2000800EB
:102C300001308316031385000130831203138500CE
:102C400083160313860183120313860181308316D2
:102C500003138700C0308312031387008316031306
:102C600088018312031388018316031389018312D9
:102C700003138901033090008E018F010030831609
:102C80000317A3000130A200C230A1000030A00051
:102C90000A128A11B5270A168A110A128A11F4201B
:102CA0000A168A110A168A1142200A168A110A1671
:102CB0008A1194210A168A110A168A11BB230A1650
:102CC0008A110B178B17333083160317920080304D
:102CD00093000A168A11DD210A168A1150308316D4
:102CE00003179200803093000A168A11DD210A161C
:102CF0008A110A168A11BB230A168A118316031732
:102D0000910100300A168A11CD200A168A1164300A
:102D10000A168A11ED200A168A110030831603174D
:102D20009100003092000A168A110D210A168A11AC
:102D3000FF30831603179100033092000A168A11A0
:102D40002E210A168A11EE300A168A1106200A165A
:102D50008A11183083160317BA006130B9006E303B
:102D6000B800B80BB12EB90BB12EBA0BB12E0000C2
:102D7000753083160317B8003808B00083160313A4
:102D8000490883160317B201B207831603134808D4
:102D900083160317B101B107CA300A168A114F21F1
:102DA0000A168A11CA308316031792000030930066
:102DB0000A168A11DD210A168A114D30831603176F
:102DC0009200803093000A168A11DD210A168A11BA
:102DD000053083160317BA00AD30B900E030B800F3
:102DE000B80BF02EB90BF02EBA0BF02EB82E8312C2
:102DF00003134008C6004108C7004208C80003107A
:102E0000470D480DC9004908CC004308C6004408D6
:102E1000C7004508C8000310470D480DC900490800
:102E2000CB004C080319202F4B084C020318272F06
:102E30004C03FF3A4B07C60019304602031C272FEC
:102E40004308C0004408C1004508C20008004B0800
:102E5000031908004C084B020318362F4B03FF3AA6
:102E60004C07C60019304602031808000630C60099
:102E70004608CA00C21BCA17C51B4A17C117FF3034
:102E8000C005FF30C1050030C205C417FF30C305BF
:102E9000FF30C4050030C5054B084C020318762FDF
:102EA00001300310C30DC40DC50DFF3E031D512F8E
:102EB0000130CB024B084C060319712F0130CA02B6
:102EC0004A0807390319712F502F01300310C20C23
:102ED000C10CC00CFF3E031D662F0130C600460822
:102EE000CC074C084B0603199F2F652F4C084B024B
:102EF00003189F2F01300310C00DC10DC20DFF3EFE
:102F0000031D7B2F0130CC024B084C0603199B2F6D
:102F10000130CA024A08073903199B2F7A2F013062
:102F20000310C50CC40CC30CFF3E031D902F0130D1
:102F3000C6004608CB074C084B06031D8F2FCA1F3F
:102F4000B12FFF30C006FF30C106FF30C20601308E
:102F5000C007003003180130C107003003180130EA
:102F6000C2074A1FC32FFF30C306FF30C406FF301D
:102F7000C5060130C307003003180130C407003014
:102F800003180130C507CA014008C30741080311EF
:102F90000318410A031DC407420803110318420A1B
:102FA000031DC507C51FE62FFF30C306FF30C4064B
:102FB000FF30C5060130C307003003180130C407D5
:102FC000003003180130C507CA01CA0A4308F000DF
:102FD0004408F1004508F2004C08C6004608F3001A
:102FE0004A08C7004708F4000A168A1153237008DC
:102FF00083120313C0007108C1007208C2000800E8
:063FFA0040349C34453404
:02400E0032FF7F
:00000001FF
